:100000000C942A000C9434000C9434000C943400AA
:100010000C9434000C9434000C9434000C94340090
:100020000C9434000C9434000C9434000C94340080
:100030000C9434000C9434000C9434000C94340070
:100040000C9434000C9434000C9434000C94340060
:100050000C94340011241FBECFE5D8E0DEBFCDBF25
:100060000E941E050C9423050C940000DF93CF938F
:10007000CDB7DEB727970FB6F894DEBF0FBECDBF62
:1000800089836A834B838B81813009F070C08981B9
:10009000282F30E03F832E838E819F81823091050F
:1000A00051F12E813F812330310534F48E819F81BF
:1000B0008130910561F0D3C02E813F81233031051D
:1000C00071F18E819F8184309105E9F1C8C0AAE366
:1000D000B0E0EAE3F0E08081482F8A81282F30E009
:1000E00081E090E0022E02C0880F991F0A94E2F787
:1000F000842B8C93B4C0A7E3B0E0E7E3F0E0808109
:10010000482F8A81282F30E081E090E0022E02C043
:10011000880F991F0A94E2F7842B8C93A0C0A4E364
:10012000B0E0E4E3F0E08081482F8A81282F30E0BE
:1001300081E090E0022E02C0880F991F0A94E2F736
:10014000842B8C938CC0A1E3B0E0E1E3F0E08081EC
:10015000482F8A81282F30E081E090E0022E02C0F3
:10016000880F991F0A94E2F7842B8C9378C08B81B7
:10017000882309F074C08981282F30E03D832C83C7
:100180008C819D818230910561F12C813D812330EC
:10019000310534F48C819D818130910569F05FC017
:1001A0002C813D812330310589F18C819D81843002
:1001B000910509F440C053C0AAE3B0E0EAE3F0E0DF
:1001C0008081482F8A81282F30E081E090E0022E44
:1001D00002C0880F991F0A94E2F7809584238C93BC
:1001E0003EC0A7E3B0E0E7E3F0E08081482F8A81DA
:1001F000282F30E081E090E0022E02C0880F991F86
:100200000A94E2F7809584238C9329C0A4E3B0E09C
:10021000E4E3F0E08081482F8A81282F30E081E0FC
:1002200090E0022E02C0880F991F0A94E2F7809591
:1002300084238C9314C0A1E3B0E0E1E3F0E080817B
:10024000482F8A81282F30E081E090E0022E02C002
:10025000880F991F0A94E2F7809584238C93279640
:100260000FB6F894DEBF0FBECDBFCF91DF910895DA
:10027000DF93CF93CDB7DEB727970FB6F894DEBFE5
:100280000FBECDBF89836A834B838B81813009F098
:1002900070C08981282F30E03F832E838E819F811B
:1002A0008230910551F12E813F812330310534F4A4
:1002B0008E819F818130910561F0D3C02E813F8175
:1002C0002330310571F18E819F8184309105E9F1F0
:1002D000C8C0ABE3B0E0EBE3F0E08081482F8A8157
:1002E000282F30E081E090E0022E02C0880F991F95
:1002F0000A94E2F7842B8C93B4C0A8E3B0E0E8E35F
:10030000F0E08081482F8A81282F30E081E090E062
:10031000022E02C0880F991F0A94E2F7842B8C9357
:10032000A0C0A5E3B0E0E5E3F0E08081482F8A813A
:10033000282F30E081E090E0022E02C0880F991F44
:100340000A94E2F7842B8C938CC0A2E3B0E0E2E342
:10035000F0E08081482F8A81282F30E081E090E012
:10036000022E02C0880F991F0A94E2F7842B8C9307
:1003700078C08B81882309F074C08981282F30E0F0
:100380003D832C838C819D818230910561F12C818C
:100390003D812330310534F48C819D81813091057C
:1003A00069F05FC02C813D812330310589F18C815A
:1003B0009D818430910509F440C053C0ABE3B0E0A7
:1003C000EBE3F0E08081482F8A81282F30E081E044
:1003D00090E0022E02C0880F991F0A94E2F78095E0
:1003E00084238C933EC0A8E3B0E0E8E3F0E0808192
:1003F000482F8A81282F30E081E090E0022E02C051
:10040000880F991F0A94E2F7809584238C9329C062
:10041000A5E3B0E0E5E3F0E08081482F8A81282F52
:1004200030E081E090E0022E02C0880F991F0A940C
:10043000E2F7809584238C9314C0A2E3B0E0E2E35A
:10044000F0E08081482F8A81282F30E081E090E021
:10045000022E02C0880F991F0A94E2F78095842328
:100460008C9327960FB6F894DEBF0FBECDBFCF9109
:10047000DF910895DF93CF9300D000D000D0CDB7A7
:10048000DEB789836A838981282F30E03D832C83FE
:100490004C815D814230510549F18C819D818330D1
:1004A000910534F42C813D812130310561F057C034
:1004B0004C815D814330510561F18C819D81843097
:1004C0009105D1F14CC0E9E3F0E08081282F30E0C4
:1004D0008A81882F90E0A90102C0559547958A9599
:1004E000E2F7CA01582F51705B833AC0E6E3F0E0AF
:1004F0008081282F30E08A81882F90E0A90102C0F6
:10050000559547958A95E2F7CA01582F51705B833C
:1005100027C0E3E3F0E08081282F30E08A81882F34
:1005200090E0A90102C0559547958A95E2F7CA0166
:10053000582F51705B8314C0E0E3F0E08081282FD6
:1005400030E08A81882F90E0A90102C05595479537
:100550008A95E2F7CA01582F51705B8301C002C02F
:100560008B818E838E8126960FB6F894DEBF0FBEE8
:10057000CDBFCF91DF910895DF93CF9300D000D00E
:1005800000D0CDB7DEB789836A838A81813009F0D4
:100590003FC08981282F30E03E832D838D819E814D
:1005A00082309105F1F02D813E812330310534F404
:1005B0008D819E818130910561F02AC02D813E811F
:1005C00023303105B1F08D819E8184309105C9F0D1
:1005D0001FC0AAE3B0E0EAE3F0E080818F608C9373
:1005E00017C0A7E3B0E0E7E3F0E080818F608C9371
:1005F0000FC0A4E3B0E0E4E3F0E080818F608C936F
:1006000007C0A1E3B0E0E1E3F0E080818F608C936C
:100610008A81882309F03FC08981282F30E03C83FC
:100620002B838B819C8182309105F1F02B813C8161
:100630002330310534F48B819C818130910561F048
:100640002AC02B813C8123303105B1F08B819C8104
:1006500084309105C9F01FC0AAE3B0E0EAE3F0E0FE
:100660008081807F8C9317C0A7E3B0E0E7E3F0E0E0
:100670008081807F8C930FC0A4E3B0E0E4E3F0E0DE
:100680008081807F8C9307C0A1E3B0E0E1E3F0E0DC
:100690008081807F8C9326960FB6F894DEBF0FBEC4
:1006A000CDBFCF91DF910895DF93CF9300D000D0DD
:1006B00000D0CDB7DEB789836A838A81813009F0A3
:1006C0003FC08981282F30E03E832D838D819E811C
:1006D00082309105F1F02D813E812330310534F4D3
:1006E0008D819E818130910561F02AC02D813E81EE
:1006F00023303105B1F08D819E8184309105C9F0A0
:100700001FC0AAE3B0E0EAE3F0E08081806F8C9341
:1007100017C0A7E3B0E0E7E3F0E08081806F8C933F
:100720000FC0A4E3B0E0E4E3F0E08081806F8C933D
:1007300007C0A1E3B0E0E1E3F0E08081806F8C933B
:100740008A81882309F03FC08981282F30E03C83CB
:100750002B838B819C8182309105F1F02B813C8130
:100760002330310534F48B819C818130910561F017
:100770002AC02B813C8123303105B1F08B819C81D3
:1007800084309105C9F01FC0AAE3B0E0EAE3F0E0CD
:1007900080818F708C9317C0A7E3B0E0E7E3F0E0AF
:1007A00080818F708C930FC0A4E3B0E0E4E3F0E0AD
:1007B00080818F708C9307C0A1E3B0E0E1E3F0E0AB
:1007C00080818F708C9326960FB6F894DEBF0FBE93
:1007D000CDBFCF91DF910895DF93CF9300D000D0AC
:1007E00000D0CDB7DEB789836A838A81813009F072
:1007F00040C08981282F30E03E832D838D819E81EA
:1008000082309105F1F02D813E812330310534F4A1
:100810008D819E818130910561F06EC02D813E8178
:1008200023303105B1F08D819E8184309105C9F06E
:1008300063C0ABE3B0E0EBE3F0E080818F608C93CA
:100840005BC0A8E3B0E0E8E3F0E080818F608C93C8
:1008500053C0A5E3B0E0E5E3F0E080818F608C93C6
:100860004BC0A2E3B0E0E2E3F0E080818F608C93C4
:1008700043C08A81882309F03FC08981282F30E056
:100880003C832B838B819C8182309105F1F02B81FD
:100890003C812330310534F48B819C81813091057A
:1008A00061F02AC02B813C8123303105B1F08B816E
:1008B0009C8184309105C9F01FC0ABE3B0E0EBE34D
:1008C000F0E08081807F8C9317C0A8E3B0E0E8E37C
:1008D000F0E08081807F8C930FC0A5E3B0E0E5E37A
:1008E000F0E08081807F8C9307C0A2E3B0E0E2E378
:1008F000F0E08081807F8C9326960FB6F894DEBF5F
:100900000FBECDBFCF91DF910895DF93CF9300D07D
:1009100000D000D0CDB7DEB789836A838A81813069
:1009200009F040C08981282F30E03E832D838D81DE
:100930009E8182309105F1F02D813E812330310579
:1009400034F48D819E818130910561F06EC02D81DE
:100950003E8123303105B1F08D819E818430910537
:10096000C9F063C0ABE3B0E0EBE3F0E08081806FFF
:100970008C935BC0A8E3B0E0E8E3F0E08081806F97
:100980008C9353C0A5E3B0E0E5E3F0E08081806F95
:100990008C934BC0A2E3B0E0E2E3F0E08081806F93
:1009A0008C9343C08A81882309F03FC08981282F16
:1009B00030E03C832B838B819C8182309105F1F068
:1009C0002B813C812330310534F48B819C81813033
:1009D000910561F02AC02B813C8123303105B1F0B3
:1009E0008B819C8184309105C9F01FC0ABE3B0E0DE
:1009F000EBE3F0E080818F708C9317C0A8E3B0E048
:100A0000E8E3F0E080818F708C930FC0A5E3B0E045
:100A1000E5E3F0E080818F708C9307C0A2E3B0E043
:100A2000E2E3F0E080818F708C9326960FB6F89405
:100A3000DEBF0FBECDBFCF91DF910895DF93CF937F
:0A0A4000CDB7DEB7FFCFF894FFCF6B
:00000001FF
