:100000000C942A000C943F000C943F000C943F0089
:100010000C943F000C943F000C943F000C943F0064
:100020000C943F000C943F000C943F000C943F0054
:100030000C943F000C943F000C943F000C943F0044
:100040000C943F000C943F000C943F000C943F0034
:100050000C943F0011241FBECFE5D8E0DEBFCDBF1A
:1000600010E0A0E6B0E0EAEDF6E302C005900D92E4
:10007000A038B107D9F70E941F160C946B1B0C9483
:100080000000EF92FF920F931F937B018C0120E001
:1000900030E040E05FE40E94410388238CF0C80117
:1000A000B70120E030E040E05FE40E94B9010E9427
:1000B000A1039B01AC01205030404040504806C095
:1000C000C801B7010E94A1039B01AC01B901CA019B
:1000D0001F910F91FF90EF900895A0E0B0E0E3E74B
:1000E000F0E00C94341BDC012B01FA019C9192305E
:1000F00008F439C1EB018881823008F433C19430AF
:1001000069F4843009F02FC111969C91119789816F
:10011000981709F428C1A0E6B0E025C1843009F49D
:1001200021C18230A9F4923009F01DC19A01AD01BC
:1001300088E0EA010990AE01E90109929E0181502F
:10014000C1F7E201898111969C918923818308C1BD
:10015000923009F407C112962D903C901397EB0151
:100160008A819B811496AD90BD90CD90DC901797BD
:10017000EC80FD800E811F819101281B390BB90194
:1001800037FF04C066277727621B730B6032710547
:100190000CF061C0121613066CF537014801062EEB
:1001A00004C096948794779467940A94D2F721E0D8
:1001B00030E040E050E004C0220F331F441F551FC1
:1001C0006A95D2F721503040404050402E213F21C7
:1001D00040235123211531054105510521F021E02E
:1001E00030E040E050E079018A01E628F72808294C
:1001F00019293CC0232BD1F1260E371E35014601AB
:10020000062E04C096948794779467940A94D2F744
:1002100021E030E040E050E004C0220F331F441FD3
:10022000551F6A95D2F721503040404050402A2156
:100230003B214C215D21211531054105510521F05E
:1002400021E030E040E050E059016A01A628B728DB
:10025000C828D9280BC0821593052CF01C01AA24AC
:10026000BB24650103C0EE24FF24870111969C91F5
:10027000D20111968C91981709F445C0992339F051
:10028000A80197012A193B094C095D0906C0A6017E
:1002900095012E193F09400B510B57FD08C01182E3
:1002A0003382228224833583468357831DC081E0B5
:1002B00081833382228288279927DC01821B930B5A
:1002C000A40BB50B84839583A683B7830DC0220F3F
:1002D000331F441F551F24833583468357838281F0
:1002E000938101979383828324813581468157814D
:1002F000DA01C9010197A109B1098F5F9F4FAF4F83
:10030000BF4328F30BC0918333822282EA0CFB1C8B
:100310000C1D1D1DE482F5820683178383E0808314
:10032000248135814681578157FF1AC0C901AA2708
:1003300097FDA095BA2F81709070A070B0705695FF
:10034000479537952795822B932BA42BB52B848328
:100350009583A683B7838281938101969383828359
:10036000DF0101C0D201CD01CDB7DEB7E2E10C94CF
:10037000501BA0E2B0E0EFEBF1E00C94401B69836E
:100380007A838B839C832D833E834F835887E9E058
:10039000EE2EF12CEC0EFD1ECE010196B7010E944F
:1003A000CA048E010F5E1F4FCE010596B8010E9450
:1003B000CA048A8991E089278A8BC701B801AE01F6
:1003C000475E5F4F0E946D000E94F503A096E6E035
:1003D0000C945C1BA0E2B0E0E0EFF1E00C94401B59
:1003E00069837A838B839C832D833E834F835887D5
:1003F000F9E0EF2EF12CEC0EFD1ECE010196B701B7
:100400000E94CA048E010F5E1F4FCE010596B801EF
:100410000E94CA04C701B801AE01475E5F4F0E9447
:100420006D000E94F503A096E6E00C945C1BA0E230
:10043000B0E0EDE1F2E00C94341B69837A838B83A6
:100440009C832D833E834F835887CE010196BE0146
:10045000675F7F4F0E94CA04CE010596BE016F5EA2
:100460007F4F0E94CA049985923088F08989823032
:10047000C8F0943019F4823051F404C0843029F467
:10048000923081F480E690E0C6C0923049F420E0DA
:100490009A858A89981321E02A87CE010996BBC0E4
:1004A000823049F420E09A858A89981321E02A8BCA
:1004B000CE014196B0C02D843E844F8458886D880B
:1004C0007E888F88988CEE24FF248701AA24BB2481
:1004D000650140E050E060E070E0E0E0F0E0C10184
:1004E00081709070892BE9F0E60CF71C081D191D2E
:1004F0009A01AB012A0D3B1D4C1D5D1D80E090E073
:10050000A0E0B0E0E614F7040805190520F481E046
:1005100090E0A0E0B0E0BA01A901480F591F6A1F9E
:100520007B1FAA0CBB1CCC1CDD1C97FE08C081E005
:1005300090E0A0E0B0E0A82AB92ACA2ADB2A3196C6
:10054000E032F10549F0660C771C881C991C569422
:10055000479437942794C3CFFA85EA892B893C893D
:100560008B859C85280F391F2E5F3F4F17C0CA010E
:1005700081709070892B61F016950795F794E79438
:1005800080E090E0A0E0B0E8E82AF92A0A2B1B2BD3
:1005900076956795579547952F5F3F4F77FDE7CF46
:1005A0000CC0440F551F661F771F17FD4160EE0CEE
:1005B000FF1C001F111F21503040403090E05907B0
:1005C00090E0690790E4790760F32B8F3C8FDB01A3
:1005D000CA018F779070A070B07080349105A1052A
:1005E000B10561F447FD0AC0E114F10401051105EC
:1005F00029F0405C5F4F6F4F7F4F40781A8EFE1797
:1006000011F081E08A8F4D8F5E8F6F8F78A383E02A
:10061000898FCE0149960E94F503A096E2E10C94E1
:10062000501BA8E1B0E0E7E1F3E00C94401B6983C4
:100630007A838B839C832D833E834F83588789E005
:10064000E82EF12CEC0EFD1ECE010196B7010E94A2
:10065000CA048E010F5E1F4FCE010596B8010E949D
:10066000CA048985823040F08989823028F0C70128
:10067000B8010E94420501C08FEF6896E6E00C9435
:100680005C1BA8E1B0E0E7E4F3E00C94401B698355
:100690007A838B839C832D833E834F83588789E0A5
:1006A000E82EF12CEC0EFD1ECE010196B7010E9442
:1006B000CA048E010F5E1F4FCE010596B8010E943D
:1006C000CA048985823040F08989823028F0C701C8
:1006D000B8010E94420501C08FEF6896E6E00C94D5
:1006E0005C1BA8E1B0E0E7E7F3E00C94401B6983F2
:1006F0007A838B839C832D833E834F83588789E045
:10070000E82EF12CEC0EFD1ECE010196B7010E94E1
:10071000CA048E010F5E1F4FCE010596B8010E94DC
:10072000CA048985823040F08989823028F0C70167
:10073000B8010E94420501C081E06896E6E00C9491
:100740005C1BACE0B0E0E7EAF3E00C94441B698387
:100750007A838B839C83CE010196BE016B5F7F4FB2
:100760000E94CA048D81823061F1823050F1843060
:1007700021F48E81882351F12EC02F81388537FDD9
:1007800020C06E812F3131051CF06623F9F023C0A3
:100790008EE190E0821B930B29853A854B855C8521
:1007A00004C056954795379527958A95D2F76623C5
:1007B000B1F050954095309521953F4F4F4F5F4F89
:1007C0000EC020E030E040E050E009C02FEF3FEFE6
:1007D0004FEF5FE704C020E030E040E050E8B901AF
:1007E000CA012C96E2E00C94601BDF92EF92FF921C
:1007F0000F931F93FC01E480F58006811781D1805F
:100800008081823048F480E090E0A0E1B0E0E82A06
:10081000F92A0A2B1B2BA5C0843009F49FC0823013
:1008200021F4EE24FF24870105C0E114F104010541
:10083000110519F4E0E0F0E096C0628173819FEF4A
:10084000623879070CF05BC022E83FEF261B370BBC
:100850002A3131052CF020E030E040E050E02AC0A1
:10086000B801A701022E04C0769567955795479564
:100870000A94D2F781E090E0A0E0B0E004C0880FD5
:10088000991FAA1FBB1F2A95D2F70197A109B10989
:100890008E219F21A023B1230097A105B10521F04E
:1008A00081E090E0A0E0B0E09A01AB01282B392B69
:1008B0004A2B5B2BDA01C9018F779070A070B07062
:1008C00080349105A105B10539F427FF09C0205CEA
:1008D0003F4F4F4F5F4F04C0215C3F4F4F4F5F4F23
:1008E000E0E0F0E02030A0E03A07A0E04A07A0E412
:1008F0005A0710F0E1E0F0E079018A0127C0603882
:10090000710564F5FB01E158FF4FD801C7018F77EE
:100910009070A070B07080349105A105B10539F4D4
:10092000E7FE0DC080E490E0A0E0B0E004C08FE3FB
:1009300090E0A0E0B0E0E80EF91E0A1F1B1F17FFB1
:1009400005C016950795F794E794319687E01695BC
:100950000795F794E7948A95D1F705C0EE24FF2414
:100960008701EFEFF0E06E2F679566276795902F70
:100970009F77D794DD24D7948E2F8695492F462BC9
:10098000582F5D29B701CA011F910F91FF90EF9079
:10099000DF900895FC01DB01408151812281622FAB
:1009A0006F7770E0221F2227221F9381892F880FE3
:1009B000822B282F30E0991F9927991F11969C931D
:1009C000119721153105A9F54115510561057105ED
:1009D00011F482E037C082E89FEF13969C938E93C8
:1009E00012979A01AB0167E0220F331F441F551F76
:1009F0006A95D1F783E08C930DC0220F331F441FFB
:100A0000551F12968D919C911397019713969C9365
:100A10008E931297203080E0380780E0480780E40A
:100A2000580758F314962D933D934D935C93179765
:100A300008952F3F310579F4411551056105710580
:100A400019F484E08C93089564FF03C081E08C93D3
:100A500012C01C9210C02F57304013963C932E9317
:100A6000129783E08C9387E0440F551F661F771F12
:100A70008A95D1F7706414964D935D936D937C9332
:100A8000179708951F93DC01FB019C91923008F4A5
:100A900047C08081823008F443C0943051F41196ED
:100AA0001C91843099F58181682F70E0611B710978
:100AB0003FC0843021F0923031F48230B9F181812D
:100AC000882389F12DC011961C9111978230F1F085
:100AD00081811817D9F412962D913C911397828138
:100AE00093818217930794F028173907BCF0149666
:100AF0008D919D910D90BC91A02D248135814681D1
:100B00005781281739074A075B0718F4112341F06A
:100B10000AC082179307A407B50740F4112319F000
:100B200061E070E005C06FEF7FEF02C060E070E051
:100B3000CB011F910895DF93CF93CDB7DEB7AFE51B
:100B4000B0E0EFE5F0E0808180688C93CF91DF9199
:100B50000895DF93CF93CDB7DEB7AFE5B0E0EFE513
:100B6000F0E080818F778C93CF91DF910895DF93B0
:100B7000CF93CDB7DEB7A5E5B0E0E5E5F0E0808145
:100B80008C7F8C93A5E5B0E0E5E5F0E080818C9367
:100B9000ABE5B0E0EBE5F0E0808180648C93CF9131
:100BA000DF910895DF93CF93CDB7DEB7CF91DF917B
:100BB0000895DF93CF930F92CDB7DEB789838981F4
:100BC000882F90E0009771F4A5E5B0E0E5E5F0E04E
:100BD000808181608C93A5E5B0E0E5E5F0E080815F
:100BE00082608C930F90CF91DF910895DF93CF9324
:100BF00000D00F92CDB7DEB789838981282F30E0EE
:100C00003B832A838A819B8181309105F9F02A8177
:100C10003B812230310581F18A819B810097D1F59A
:100C2000A5E5B0E0E5E5F0E0808181608C93A5E585
:100C3000B0E0E5E5F0E0808182608C93ABE5B0E068
:100C4000EBE5F0E0808180648C9324C0A5E5B0E002
:100C5000E5E5F0E0808184608C93A5E5B0E0E5E512
:100C6000F0E0808188608C93ABE5B0E0EBE5F0E0EC
:100C7000808180688C930EC0A4E5B0E0E4E5F0E0EC
:100C8000808180648C93ABE5B0E0EBE5F0E080819F
:100C900080628C930F900F900F90CF91DF91089509
:100CA000DF93CF93CDB7DEB727970FB6F894DEBFAB
:100CB0000FBECDBF89836A834B838B81813009F05E
:100CC0006FC08981282F30E03F832E838E819F81E2
:100CD0008130910549F12E813F81223031052CF47C
:100CE0008E819F81009761F0D2C02E813F8122309A
:100CF000310571F18E819F8183309105E9F1C7C083
:100D0000AAE3B0E0EAE3F0E08081482F8A81282F4F
:100D100030E081E090E0022E02C0880F991F0A9413
:100D2000E2F7842B8C93B3C0A7E3B0E0E7E3F0E0F5
:100D30008081482F8A81282F30E081E090E0022EC8
:100D400002C0880F991F0A94E2F7842B8C939FC0EE
:100D5000A4E3B0E0E4E3F0E08081482F8A81282F0B
:100D600030E081E090E0022E02C0880F991F0A94C3
:100D7000E2F7842B8C938BC0A1E3B0E0E1E3F0E0D9
:100D80008081482F8A81282F30E081E090E0022E78
:100D900002C0880F991F0A94E2F7842B8C9377C0C6
:100DA0008B81882309F073C08981282F30E03D832F
:100DB0002C838C819D818130910559F12C813D815D
:100DC000223031052CF48C819D81009769F05FC041
:100DD0002C813D812230310589F18C819D818330C8
:100DE000910509F440C053C0AAE3B0E0EAE3F0E0A3
:100DF0008081482F8A81282F30E081E090E0022E08
:100E000002C0880F991F0A94E2F7809584238C937F
:100E10003EC0A7E3B0E0E7E3F0E08081482F8A819D
:100E2000282F30E081E090E0022E02C0880F991F49
:100E30000A94E2F7809584238C9329C0A4E3B0E060
:100E4000E4E3F0E08081482F8A81282F30E081E0C0
:100E500090E0022E02C0880F991F0A94E2F7809555
:100E600084238C9314C0A1E3B0E0E1E3F0E080813F
:100E7000482F8A81282F30E081E090E0022E02C0C6
:100E8000880F991F0A94E2F7809584238C93279604
:100E90000FB6F894DEBF0FBECDBFCF91DF9108959E
:100EA000DF93CF93CDB7DEB727970FB6F894DEBFA9
:100EB0000FBECDBF89836A834B838B81813009F05C
:100EC0006FC08981282F30E03F832E838E819F81E0
:100ED0008130910549F12E813F81223031052CF47A
:100EE0008E819F81009761F0D2C02E813F81223098
:100EF000310571F18E819F8183309105E9F1C7C081
:100F0000ABE3B0E0EBE3F0E08081482F8A81282F4B
:100F100030E081E090E0022E02C0880F991F0A9411
:100F2000E2F7842B8C93B3C0A8E3B0E0E8E3F0E0F1
:100F30008081482F8A81282F30E081E090E0022EC6
:100F400002C0880F991F0A94E2F7842B8C939FC0EC
:100F5000A5E3B0E0E5E3F0E08081482F8A81282F07
:100F600030E081E090E0022E02C0880F991F0A94C1
:100F7000E2F7842B8C938BC0A2E3B0E0E2E3F0E0D5
:100F80008081482F8A81282F30E081E090E0022E76
:100F900002C0880F991F0A94E2F7842B8C9377C0C4
:100FA0008B81882309F073C08981282F30E03D832D
:100FB0002C838C819D818130910559F12C813D815B
:100FC000223031052CF48C819D81009769F05FC03F
:100FD0002C813D812230310589F18C819D818330C6
:100FE000910509F440C053C0ABE3B0E0EBE3F0E09F
:100FF0008081482F8A81282F30E081E090E0022E06
:1010000002C0880F991F0A94E2F7809584238C937D
:101010003EC0A8E3B0E0E8E3F0E08081482F8A8199
:10102000282F30E081E090E0022E02C0880F991F47
:101030000A94E2F7809584238C9329C0A5E3B0E05D
:10104000E5E3F0E08081482F8A81282F30E081E0BD
:1010500090E0022E02C0880F991F0A94E2F7809553
:1010600084238C9314C0A2E3B0E0E2E3F0E080813B
:10107000482F8A81282F30E081E090E0022E02C0C4
:10108000880F991F0A94E2F7809584238C93279602
:101090000FB6F894DEBF0FBECDBFCF91DF9108959C
:1010A000DF93CF9300D000D00F92CDB7DEB78A8305
:1010B0006B8319828A81282F30E03D832C834C81F9
:1010C0005D814130510541F18C819D8182309105D6
:1010D00034F42C813D812115310561F052C04C81E1
:1010E0005D814230510551F18C819D8183309105A4
:1010F000B9F147C0E9E3F0E08081282F30E08B812F
:10110000882F90E0A90102C0559547958A95E2F78E
:10111000CA018170898335C0E6E3F0E08081282F21
:1011200030E08B81882F90E0A90102C0559547954A
:101130008A95E2F7CA018170898323C0E3E3F0E076
:101140008081282F30E08B81882F90E0A90102C098
:10115000559547958A95E2F7CA018170898311C038
:10116000E0E3F0E08081282F30E08B81882F90E051
:10117000A90102C0559547958A95E2F7CA01817089
:10118000898389810F900F900F900F900F90CF91CE
:10119000DF910895DF93CF9300D000D000D0CDB77A
:1011A000DEB789836A838A81813099F58981282F06
:1011B00030E03E832D838D819E8181309105D1F079
:1011C0002D813E81223031052CF48D819E81009746
:1011D00061F050C02D813E812230310581F08D813A
:1011E0009E818330910581F045C0EAE3F0E08FEF06
:1011F000808340C0E7E3F0E08FEF80833BC0E4E30F
:10120000F0E08FEF808336C0E1E3F0E08FEF808382
:1012100031C08A81882371F58981282F30E03C8391
:101220002B838B819C8181309105C9F02B813C817E
:10123000223031052CF48B819C81009761F01AC01B
:101240002B813C812230310571F08B819C81833070
:10125000910569F00FC0EAE3F0E010820BC0E7E30C
:10126000F0E0108207C0E4E3F0E0108203C0E1E3A5
:10127000F0E0108226960FB6F894DEBF0FBECDBF09
:10128000CF91DF910895DF93CF9300D000D0CDB7F9
:10129000DEB789836A838981282F30E03C832B83E2
:1012A0008B819C8181309105D1F02B813C81223052
:1012B00031052CF48B819C81009761F01EC02B813D
:1012C0003C812230310581F08B819C8183309105F6
:1012D00081F013C0EBE3F0E08A8180830EC0E8E385
:1012E000F0E08A81808309C0E5E3F0E08A818083B1
:1012F00004C0E2E3F0E08A8180830F900F900F90AA
:101300000F90CF91DF910895DF93CF9300D000D05D
:10131000CDB7DEB78A8319828A81282F30E03C83DB
:101320002B838B819C8181309105D1F02B813C8175
:10133000223031052CF48B819C81009761F01EC016
:101340002B813C812230310581F08B819C8183305F
:10135000910581F013C0E9E3F0E0808189830EC03C
:10136000E6E3F0E08081898309C0E3E3F0E0808177
:10137000898304C0E0E3F0E08081898389810F9054
:101380000F900F900F90CF91DF910895DF93CF933F
:1013900000D000D000D0CDB7DEB789836A838A81C0
:1013A000813009F03FC08981282F30E03E832D83B2
:1013B0008D819E8181309105E9F02D813E81223021
:1013C00031052CF48D819E81009761F06DC02D81D7
:1013D0003E8122303105B1F08D819E8183309105AF
:1013E000C9F062C0AAE3B0E0EAE3F0E080818F6078
:1013F0008C935AC0A7E3B0E0E7E3F0E080818F6010
:101400008C9352C0A4E3B0E0E4E3F0E080818F600D
:101410008C934AC0A1E3B0E0E1E3F0E080818F600B
:101420008C9342C08A81882309F03EC08981282F8D
:1014300030E03C832B838B819C8181309105E9F0E6
:101440002B813C81223031052CF48B819C810097CB
:1014500061F02AC02B813C8122303105B1F08B81B3
:101460009C8183309105C9F01FC0AAE3B0E0EAE394
:10147000F0E08081807F8C9317C0A7E3B0E0E7E3C2
:10148000F0E08081807F8C930FC0A4E3B0E0E4E3C0
:10149000F0E08081807F8C9307C0A1E3B0E0E1E3BE
:1014A000F0E08081807F8C9326960FB6F894DEBFA3
:1014B0000FBECDBFCF91DF910895DF93CF9300D0C2
:1014C00000D000D0CDB7DEB789836A838A818130AE
:1014D00009F03FC08981282F30E03E832D838D8124
:1014E0009E8181309105E9F02D813E8122303105C8
:1014F0002CF48D819E81009761F06DC02D813E811D
:1015000022303105B1F08D819E8183309105C9F083
:1015100062C0AAE3B0E0EAE3F0E08081806F8C93E0
:101520005AC0A7E3B0E0E7E3F0E08081806F8C93DE
:1015300052C0A4E3B0E0E4E3F0E08081806F8C93DC
:101540004AC0A1E3B0E0E1E3F0E08081806F8C93DA
:1015500042C08A81882309F03EC08981282F30E06B
:101560003C832B838B819C8181309105E9F02B8119
:101570003C81223031052CF48B819C81009761F0F5
:101580002AC02B813C8122303105B1F08B819C81B6
:1015900083309105C9F01FC0AAE3B0E0EAE3F0E0B0
:1015A00080818F708C9317C0A7E3B0E0E7E3F0E091
:1015B00080818F708C930FC0A4E3B0E0E4E3F0E08F
:1015C00080818F708C9307C0A1E3B0E0E1E3F0E08D
:1015D00080818F708C9326960FB6F894DEBF0FBE75
:1015E000CDBFCF91DF910895DF93CF9300D000D08E
:1015F00000D0CDB7DEB789836A838A81813009F054
:101600003FC08981282F30E03E832D838D819E81CC
:1016100081309105E9F02D813E81223031052CF495
:101620008D819E81009761F06DC02D813E812230B9
:101630003105B1F08D819E8183309105C9F062C082
:10164000ABE3B0E0EBE3F0E080818F608C935AC0B5
:10165000A8E3B0E0E8E3F0E080818F608C9352C0B3
:10166000A5E3B0E0E5E3F0E080818F608C934AC0B1
:10167000A2E3B0E0E2E3F0E080818F608C9342C0AF
:101680008A81882309F03EC08981282F30E03C837D
:101690002B838B819C8181309105E9F02B813C81EA
:1016A000223031052CF48B819C81009761F02AC097
:1016B0002B813C8122303105B1F08B819C818330BC
:1016C0009105C9F01FC0ABE3B0E0EBE3F0E080812F
:1016D000807F8C9317C0A8E3B0E0E8E3F0E080815E
:1016E000807F8C930FC0A5E3B0E0E5E3F0E080815C
:1016F000807F8C9307C0A2E3B0E0E2E3F0E080815A
:10170000807F8C9326960FB6F894DEBF0FBECDBFB8
:10171000CF91DF910895DF93CF9300D000D000D018
:10172000CDB7DEB789836A838A81813009F03FC0F3
:101730008981282F30E03E832D838D819E818130E9
:101740009105E9F02D813E81223031052CF48D8107
:101750009E81009761F06DC02D813E812230310560
:10176000B1F08D819E8183309105C9F062C0ABE3F9
:10177000B0E0EBE3F0E08081806F8C935AC0A8E387
:10178000B0E0E8E3F0E08081806F8C9352C0A5E385
:10179000B0E0E5E3F0E08081806F8C934AC0A2E383
:1017A000B0E0E2E3F0E08081806F8C9342C08A81F8
:1017B000882309F03EC08981282F30E03C832B83A9
:1017C0008B819C8181309105E9F02B813C81223015
:1017D00031052CF48B819C81009761F02AC02B810C
:1017E0003C8122303105B1F08B819C8183309105A1
:1017F000C9F01FC0ABE3B0E0EBE3F0E080818F7095
:101800008C9317C0A8E3B0E0E8E3F0E080818F702C
:101810008C930FC0A5E3B0E0E5E3F0E080818F702A
:101820008C9307C0A2E3B0E0E2E3F0E080818F7028
:101830008C9326960FB6F894DEBF0FBECDBFCF9126
:10184000DF9108950F931F93DF93CF93CDB7DEB74A
:10185000C654D0400FB6F894DEBF0FBECDBF83E0B4
:1018600061E00E94CA0882E060E041E00E94500608
:1018700082E061E041E00E94500682E062E041E0E7
:101880000E945006FE01ED5BFF4F80E090E0A0E279
:10189000B1E480839183A283B3838E01015C1F4FE7
:1018A000FE01ED5BFF4F608171818281938120E0B9
:1018B00030E04AEF54E40E941702DC01CB01F8014A
:1018C00080839183A283B383FE01FF96608171813F
:1018D0008281938120E030E040E85FE30E94710361
:1018E00088232CF481E090E09EAF8DAF46C0FE01CE
:1018F000FF96608171818281938120E03FEF4FE705
:1019000057E40E941103181664F5FE01ED5BFF4FCA
:10191000608171818281938120E030E040E251E476
:101920000E941702DC01CB01BC01CD010E944100E5
:10193000DC01CB019EAF8DAF0FC088EC90E09CAF77
:101940008BAF8BAD9CAD0197F1F79CAF8BAF8DAD9D
:101950009EAD01979EAF8DAF8DAD9EAD009769F79F
:1019600016C0FE01FF9660817181828193810E9481
:101970004100DC01CB019EAF8DAF8DAD9EAD9AAF26
:1019800089AF89AD9AAD0197F1F79AAF89AF8CE332
:101990000E94A70E80E090E0A0E2B1E48DAB9EAB88
:1019A000AFABB8AF6DA97EA98FA998AD20E030E0AC
:1019B0004AEF54E40E941702DC01CB0189AB9AABD9
:1019C000ABABBCAB69A97AA98BA99CA920E030E09C
:1019D00040E85FE30E94710388232CF481E090E0EB
:1019E00098AB8FA73FC069A97AA98BA99CA920E0D1
:1019F0003FEF4FE757E40E94110318164CF56DA90D
:101A00007EA98FA998AD20E030E040E251E40E9429
:101A10001702DC01CB01BC01CD010E944100DC01B9
:101A2000CB0198AB8FA70FC088EC90E09EA78DA745
:101A30008DA59EA50197F1F79EA78DA78FA598A9C3
:101A4000019798AB8FA78FA598A9009769F714C045
:101A500069A97AA98BA99CA90E944100DC01CB014C
:101A600098AB8FA78FA598A99CA78BA78BA59CA5A2
:101A70000197F1F79CA78BA78FE00E94A70E80E04B
:101A800090E0A0E2B1E48FA398A7A9A7BAA76FA19D
:101A900078A589A59AA520E030E04AEF54E40E9499
:101AA0001702DC01CB018BA39CA3ADA3BEA36BA14A
:101AB0007CA18DA19EA120E030E040E85FE30E9480
:101AC000710388232CF481E090E09AA389A33FC09E
:101AD0006BA17CA18DA19EA120E03FEF4FE757E4D1
:101AE0000E94110318164CF56FA178A589A59AA537
:101AF00020E030E040E251E40E941702DC01CB011B
:101B0000BC01CD010E944100DC01CB019AA389A355
:101B10000FC088EC90E098A38F8F8F8D98A10197CC
:101B2000F1F798A38F8F89A19AA101979AA389A30E
:101B300089A19AA1009769F714C06BA17CA18DA11E
:101B40009EA10E944100DC01CB019AA389A389A137
:101B50009AA19E8F8D8F8D8D9E8D0197F1F79E8F0F
:101B60008D8F81E00E94A70E80E090E0A0E2B1E4BA
:101B7000898F9A8FAB8FBC8F698D7A8D8B8D9C8D61
:101B800020E030E04AEF54E40E941702DC01CB0170
:101B90008D8B9E8BAF8BB88F6D897E898F89988D49
:101BA00020E030E040E85FE30E94710388232CF4DA
:101BB00081E090E09C8B8B8B3FC06D897E898F8903
:101BC000988D20E03FEF4FE757E40E94110318166D
:101BD0004CF5698D7A8D8B8D9C8D20E030E040E254
:101BE00051E40E941702DC01CB01BC01CD010E942F
:101BF0004100DC01CB019C8B8B8B0FC088EC90E00B
:101C00009A8B898B89899A890197F1F79A8B898BAD
:101C10008B899C8901979C8B8B8B8B899C890097E6
:101C200069F714C06D897E898F89988D0E94410063
:101C3000DC01CB019C8B8B8B8B899C89988B8F874C
:101C40008F8598890197F1F7988B8F8786E00E949E
:101C5000A70E80E090E0A0E2B1E48B879C87AD877F
:101C6000BE876B857C858D859E8520E030E04AEFC0
:101C700054E40E941702DC01CB018F839887A98767
:101C8000BA876F81788589859A8520E030E040E8C1
:101C90005FE30E94710388232CF481E090E09E832F
:101CA0008D833FC06F81788589859A8520E03FEFDD
:101CB0004FE757E40E94110318164CF56B857C859D
:101CC0008D859E8520E030E040E251E40E941702BD
:101CD000DC01CB01BC01CD010E944100DC01CB0144
:101CE0009E838D830FC088EC90E09C838B838B81D7
:101CF0009C810197F1F79C838B838D819E81019755
:101D00009E838D838D819E81009769F714C06F81BA
:101D1000788589859A850E944100DC01CB019E83EC
:101D20008D838D819E819A83898389819A81019790
:101D3000F1F79A838983CA5BDF4F0FB6F894DEBF51
:101D40000FBECDBFCF91DF911F910F910895DF930B
:101D5000CF93CDB7DEB7E9970FB6F894DEBF0FBECD
:101D6000CDBF89AF82E060E040E00E94500782E092
:101D700061E040E00E94500780E090E0A0E2B1E422
:101D80008DAB9EABAFABB8AF6DA97EA98FA998AD57
:101D900020E030E04AEF54E40E941702DC01CB015E
:101DA00089AB9AABABABBCAB69A97AA98BA99CA94F
:101DB00020E030E040E85FE30E94710388232CF4C8
:101DC00081E090E098AB8FA73FC069A97AA98BA961
:101DD0009CA920E03FEF4FE757E40E94110318163B
:101DE0004CF56DA97EA98FA998AD20E030E040E2C6
:101DF00051E40E941702DC01CB01BC01CD010E941D
:101E00004100DC01CB0198AB8FA70FC088EC90E0BC
:101E10009EA78DA78DA59EA50197F1F79EA78DA7DB
:101E20008FA598A9019798AB8FA78FA598A9009720
:101E300069F714C069A97AA98BA99CA90E944100DD
:101E4000DC01CB0198AB8FA78FA598A99CA78BA786
:101E50008BA59CA50197F1F79CA78BA782E062E078
:101E600041E00E94500780E090E0A0E2B1E48FA33F
:101E700098A7A9A7BAA76FA178A589A59AA520E0D8
:101E800030E04AEF54E40E941702DC01CB018BA33F
:101E90009CA3ADA3BEA36BA17CA18DA19EA120E0BC
:101EA00030E040E85FE30E94710388232CF481E076
:101EB00090E09AA389A33FC06BA17CA18DA19EA1B4
:101EC00020E03FEF4FE757E40E94110318164CF54E
:101ED0006FA178A589A59AA520E030E040E251E401
:101EE0000E941702DC01CB01BC01CD010E94410020
:101EF000DC01CB019AA389A30FC088EC90E098A3E2
:101F00008F8F8F8D98A10197F1F798A38F8F89A15B
:101F10009AA101979AA389A389A19AA1009769F729
:101F200014C06BA17CA18DA19EA10E944100DC0187
:101F3000CB019AA389A389A19AA19E8F8D8F8D8DA4
:101F40009E8D0197F1F79E8F8D8F83E069AD0E9482
:101F5000430980E090E0A0E2B1E4898F9A8FAB8FD3
:101F6000BC8F698D7A8D8B8D9C8D20E030E04AEF9F
:101F700054E40E941702DC01CB018D8B9E8BAF8B4A
:101F8000B88F6D897E898F89988D20E030E040E898
:101F90005FE30E94710388232CF481E090E09C8B26
:101FA0008B8B3FC06D897E898F89988D20E03FEFB4
:101FB0004FE757E40E94110318164CF5698D7A8D8E
:101FC0008B8D9C8D20E030E040E251E40E941702AE
:101FD000DC01CB01BC01CD010E944100DC01CB0141
:101FE0009C8B8B8B0FC088EC90E09A8B898B8989B6
:101FF0009A890197F1F79A8B898B8B899C89019734
:102000009C8B8B8B8B899C89009769F714C06D8999
:102010007E898F89988D0E944100DC01CB019C8BC9
:102020008B8B8B899C89988B8F878F85988901975B
:10203000F1F7988B8F8782E062E040E00E945007C2
:1020400080E090E0A0E2B1E48B879C87AD87BE87FB
:102050006B857C858D859E8520E030E04AEF54E4D9
:102060000E941702DC01CB018F839887A987BA876A
:102070006F81788589859A8520E030E040E85FE3CC
:102080000E94710388232CF481E090E09E838D836D
:102090003FC06F81788589859A8520E03FEF4FE7C3
:1020A00057E40E94110318164CF56B857C858D85CD
:1020B0009E8520E030E040E251E40E941702DC01FE
:1020C000CB01BC01CD010E944100DC01CB019E830C
:1020D0008D830FC088EC90E09C838B838B819C81E7
:1020E0000197F1F79C838B838D819E8101979E835D
:1020F0008D838D819E81009769F714C06F817885EB
:1021000089859A850E944100DC01CB019E838D83E5
:102110008D819E819A83898389819A810197F1F7C4
:102120009A838983E9960FB6F894DEBF0FBECDBFC0
:10213000CF91DF910895DF93CF93CDB7DEB7E997C5
:102140000FB6F894DEBF0FBECDBF89AF82E060E06E
:1021500041E00E94500782E061E040E00E945007A9
:1021600080E090E0A0E2B1E48DAB9EABAFABB8AF46
:102170006DA97EA98FA998AD20E030E04AEF54E424
:102180000E941702DC01CB0189AB9AABABABBCABB5
:1021900069A97AA98BA99CA920E030E040E85FE317
:1021A0000E94710388232CF481E090E098AB8FA704
:1021B0003FC069A97AA98BA99CA920E03FEF4FE70E
:1021C00057E40E94110318164CF56DA97EA98FA93A
:1021D00098AD20E030E040E251E40E941702DC01BB
:1021E000CB01BC01CD010E944100DC01CB0198ABC9
:1021F0008FA70FC088EC90E09EA78DA78DA59EA508
:102200000197F1F79EA78DA78FA598A9019798AB85
:102210008FA78FA598A9009769F714C069A97AA913
:102220008BA99CA90E944100DC01CB0198AB8FA730
:102230008FA598A99CA78BA78BA59CA50197F1F7C3
:102240009CA78BA782E062E041E00E94500780E0FB
:1022500090E0A0E2B1E48FA398A7A9A7BAA76FA1C5
:1022600078A589A59AA520E030E04AEF54E40E94C1
:102270001702DC01CB018BA39CA3ADA3BEA36BA172
:102280007CA18DA19EA120E030E040E85FE30E94A8
:10229000710388232CF481E090E09AA389A33FC0C6
:1022A0006BA17CA18DA19EA120E03FEF4FE757E4F9
:1022B0000E94110318164CF56FA178A589A59AA55F
:1022C00020E030E040E251E40E941702DC01CB0143
:1022D000BC01CD010E944100DC01CB019AA389A37E
:1022E0000FC088EC90E098A38F8F8F8D98A10197F5
:1022F000F1F798A38F8F89A19AA101979AA389A337
:1023000089A19AA1009769F714C06BA17CA18DA146
:102310009EA10E944100DC01CB019AA389A389A15F
:102320009AA19E8F8D8F8D8D9E8D0197F1F79E8F37
:102330008D8F83E069AD0E94430980E090E0A0E2C8
:10234000B1E4898F9A8FAB8FBC8F698D7A8D8B8D1D
:102350009C8D20E030E04AEF54E40E941702DC013B
:10236000CB018D8B9E8BAF8BB88F6D897E898F89CA
:10237000988D20E030E040E85FE30E9471038823FD
:102380002CF481E090E09C8B8B8B3FC06D897E8923
:102390008F89988D20E03FEF4FE757E40E941103AB
:1023A00018164CF5698D7A8D8B8D9C8D20E030E070
:1023B00040E251E40E941702DC01CB01BC01CD01D7
:1023C0000E944100DC01CB019C8B8B8B0FC088EC01
:1023D00090E09A8B898B89899A890197F1F79A8B7A
:1023E000898B8B899C8901979C8B8B8B8B899C8992
:1023F000009769F714C06D897E898F89988D0E9436
:102400004100DC01CB019C8B8B8B8B899C89988B49
:102410008F878F8598890197F1F7988B8F8782E056
:1024200062E040E00E94500780E090E0A0E2B1E46A
:102430008B879C87AD87BE876B857C858D859E85C8
:1024400020E030E04AEF54E40E941702DC01CB01A7
:102450008F839887A987BA876F81788589859A85C0
:1024600020E030E040E85FE30E94710388232CF411
:1024700081E090E09E838D833FC06F817885898560
:102480009A8520E03FEF4FE757E40E9411031816AA
:102490004CF56B857C858D859E8520E030E040E2A3
:1024A00051E40E941702DC01CB01BC01CD010E9466
:1024B0004100DC01CB019E838D830FC088EC90E04E
:1024C0009C838B838B819C810197F1F79C838B8309
:1024D0008D819E8101979E838D838D819E81009742
:1024E00069F714C06F81788589859A850E944100BB
:1024F000DC01CB019E838D838D819E819A838983AC
:1025000089819A810197F1F79A838983E9960FB6B9
:10251000F894DEBF0FBECDBFCF91DF910895DF935A
:10252000CF9300D000D0CDB7DEB79C838B831A82C7
:1025300019820FC029813A818B819C81FC01E20FB5
:10254000F31F80810E949B1089819A8101969A8352
:10255000898329813A818B819C81FC01E20FF31FE1
:102560008081882339F70F900F900F900F90CF91B3
:10257000DF910895DF93CF93CDB7DEB72B970FB6DA
:10258000F894DEBF0FBECDBF9B878A878A859B8567
:10259000009721F480E30E949B1040C01B821FC063
:1025A0008A859B852AE030E0B9010E94201B8C833C
:1025B0008A859B852AE030E0B9010E94201BCB016F
:1025C0009B878A878B81282F30E0CE010596FC01FE
:1025D000E20FF31F8C8180838B818F5F8B838A85D1
:1025E0009B850097E9F68B81882F90E001979A836D
:1025F000898310C029813A81CE010596FC01E20F42
:10260000F31F8081805D0E949B1089819A810197D0
:102610009A83898389819A81992364F72B960FB6CF
:10262000F894DEBF0FBECDBFCF91DF910895DF9349
:10263000CF9300D000D0CDB7DEB789836A8389817C
:10264000282F30E03C832B838B819C818130910546
:1026500031F02B813C812230310531F009C08A8173
:1026600080680E94A70E04C08A81806C0E94A70E19
:102670000F900F900F900F90CF91DF910895DF93FF
:10268000CF93CDB7DEB7A4970FB6F894DEBF0FBED9
:10269000CDBF89A36AA389A1282F30E03CA32BA337
:1026A0008BA19CA18130910509F48DC02BA13CA187
:1026B0002230310509F00DC118A21F8E7AC088E1C1
:1026C0000E94A70E80E090E0A8ECB2E4898F9A8F78
:1026D000AB8FBC8F698D7A8D8B8D9C8D20E030E027
:1026E0004AEF54E40E941702DC01CB018D8B9E8BD4
:1026F000AF8BB88F6D897E898F89988D20E030E00F
:1027000040E85FE30E94710388232CF481E090E0AD
:102710009C8B8B8B3FC06D897E898F89988D20E043
:102720003FEF4FE757E40E94110318164CF5698DEF
:102730007A8D8B8D9C8D20E030E040E251E40E9448
:102740001702DC01CB01BC01CD010E944100DC017C
:10275000CB019C8B8B8B0FC088EC90E09A8B898B84
:1027600089899A890197F1F79A8B898B8B899C8942
:1027700001979C8B8B8B8B899C89009769F714C080
:102780006D897E898F89988D0E944100DC01CB0183
:102790009C8B8B8B8B899C89988B8F878F85988955
:1027A0000197F1F7988B8F878F8D98A1019698A349
:1027B0008F8F8AA1282F30E08F8D98A182179307E1
:1027C0000CF47DCF86C01E8E1D8E7AC08CE10E94D7
:1027D000A70E80E090E0A8ECB2E48B879C87AD87E1
:1027E000BE876B857C858D859E8520E030E04AEF35
:1027F00054E40E941702DC01CB018F839887A987DC
:10280000BA876F81788589859A8520E030E040E835
:102810005FE30E94710388232CF481E090E09E83A3
:102820008D833FC06F81788589859A8520E03FEF51
:102830004FE757E40E94110318164CF56B857C8511
:102840008D859E8520E030E040E251E40E94170231
:10285000DC01CB01BC01CD010E944100DC01CB01B8
:102860009E838D830FC088EC90E09C838B838B814B
:102870009C810197F1F79C838B838D819E810197C9
:102880009E838D838D819E81009769F714C06F812F
:10289000788589859A850E944100DC01CB019E8361
:1028A0008D838D819E819A83898389819A81019705
:1028B000F1F79A8389838D8D9E8D01969E8F8D8FE2
:1028C0008AA1282F30E08D8D9E8D821793070CF4FE
:1028D0007DCFA4960FB6F894DEBF0FBECDBFCF91CB
:1028E000DF910895DF93CF93CDB7DEB763970FB62F
:1028F000F894DEBF0FBECDBF9A8B898B6B8B8B8913
:10290000882F90E0880F991F880F991F880F991FB3
:1029100080640E94A70E188A1F860FC02F853889F1
:1029200089899A89FC01E20FF31F80810E949B1024
:102930008F8598890196988B8F878F8598898830A5
:10294000910564F380E090E0A8ECB2E48B879C876B
:10295000AD87BE876B857C858D859E8520E030E0C8
:102960004AEF54E40E941702DC01CB018F83988761
:10297000A987BA876F81788589859A8520E030E0BC
:1029800040E85FE30E94710388232CF481E090E02B
:102990009E838D833FC06F81788589859A8520E0ED
:1029A0003FEF4FE757E40E94110318164CF56B8573
:1029B0007C858D859E8520E030E040E251E40E94D8
:1029C0001702DC01CB01BC01CD010E944100DC01FA
:1029D000CB019E838D830FC088EC90E09C838B831A
:1029E0008B819C810197F1F79C838B838D819E81E4
:1029F00001979E838D838D819E81009769F714C016
:102A00006F81788589859A850E944100DC01CB0120
:102A10009E838D838D819E819A83898389819A810A
:102A20000197F1F79A83898363960FB6F894DEBF16
:102A30000FBECDBFCF91DF910895DF93CF93CDB778
:102A4000DEB780E061E00E94C60980E061E00E949C
:102A5000F40A80E060E00E945D0A80E061E00E948C
:102A60008B0BCF91DF910895DF93CF93CDB7DEB776
:102A700064970FB6F894DEBF0FBECDBF9C8B8B8BD7
:102A80001F861A8ACFC08A89882F90E0FC01E858F7
:102A9000FF4F908180E0692F40E00E945007198A23
:102AA000ABC08989882F90E0FC01E458FF4F9081EA
:102AB00080E0692F0E945008888B8889882309F05C
:102AC00098C072C080E090E0A8E4B2E48B879C8755
:102AD000AD87BE876B857C858D859E8520E030E047
:102AE0004AEF54E40E941702DC01CB018F839887E0
:102AF000A987BA876F81788589859A8520E030E03B
:102B000040E85FE30E94710388232CF481E090E0A9
:102B10009E838D833FC06F81788589859A8520E06B
:102B20003FEF4FE757E40E94110318164CF56B85F1
:102B30007C858D859E8520E030E040E251E40E9456
:102B40001702DC01CB01BC01CD010E944100DC0178
:102B5000CB019E838D830FC088EC90E09C838B8398
:102B60008B819C810197F1F79C838B838D819E8162
:102B700001979E838D838D819E81009769F714C094
:102B80006F81788589859A850E944100DC01CB019F
:102B90009E838D838D819E819A83898389819A8189
:102BA0000197F1F79A8389838989882F90E0FC0146
:102BB000E458FF4F908180E0692F0E9450088823DD
:102BC00009F480CF8A89482F50E08989282F30E086
:102BD000CA01880F991F880F991F820F931FFC014C
:102BE000E859FF4F8081EB89FC89808381E08F87E2
:102BF00007C089898F5F898B8989843008F451CF18
:102C00008A89882F90E0FC01E858FF4F908180E08E
:102C1000692F41E00E9450078F85813039F08A8901
:102C20008F5F8A8B8A89843008F42DCF64960FB623
:102C3000F894DEBF0FBECDBFCF91DF910895DF9333
:102C4000CF93CDB7DEB782E066E041E00E94500648
:102C500082E066E041E00E94500783E063E040E0EC
:102C60000E94500682E063E041E00E945007FFCFDF
:102C7000DF93CF93CDB7DEB727970FB6F894DEBFBB
:102C80000FBECDBF89836A834B838B81813009F06E
:102C900070C08981282F30E03F832E838E819F81F1
:102CA0008230910551F12E813F812330310534F47A
:102CB0008E819F818130910561F0D3C02E813F814B
:102CC0002330310571F18E819F8184309105E9F1C6
:102CD000C8C0AAE3B0E0EAE3F0E08081482F8A812F
:102CE000282F30E081E090E0022E02C0880F991F6B
:102CF0000A94E2F7842B8C93B4C0A7E3B0E0E7E337
:102D0000F0E08081482F8A81282F30E081E090E038
:102D1000022E02C0880F991F0A94E2F7842B8C932D
:102D2000A0C0A4E3B0E0E4E3F0E08081482F8A8112
:102D3000282F30E081E090E0022E02C0880F991F1A
:102D40000A94E2F7842B8C938CC0A1E3B0E0E1E31A
:102D5000F0E08081482F8A81282F30E081E090E0E8
:102D6000022E02C0880F991F0A94E2F7842B8C93DD
:102D700078C08B81882309F074C08981282F30E0C6
:102D80003D832C838C819D818230910561F12C8162
:102D90003D812330310534F48C819D818130910552
:102DA00069F05FC02C813D812330310589F18C8130
:102DB0009D818430910509F440C053C0AAE3B0E07E
:102DC000EAE3F0E08081482F8A81282F30E081E01B
:102DD00090E0022E02C0880F991F0A94E2F78095B6
:102DE00084238C933EC0A7E3B0E0E7E3F0E080816A
:102DF000482F8A81282F30E081E090E0022E02C027
:102E0000880F991F0A94E2F7809584238C9329C038
:102E1000A4E3B0E0E4E3F0E08081482F8A81282F2A
:102E200030E081E090E0022E02C0880F991F0A94E2
:102E3000E2F7809584238C9314C0A1E3B0E0E1E332
:102E4000F0E08081482F8A81282F30E081E090E0F7
:102E5000022E02C0880F991F0A94E2F780958423FE
:102E60008C9327960FB6F894DEBF0FBECDBFCF91DF
:102E7000DF910895DF93CF93CDB7DEB727970FB6D5
:102E8000F894DEBF0FBECDBF89836A834B838B81ED
:102E9000813009F070C08981282F30E03F832E8374
:102EA0008E819F818230910551F12E813F812330A7
:102EB000310534F48E819F818130910561F0D3C05A
:102EC0002E813F812330310571F18E819F818430C5
:102ED0009105E9F1C8C0ABE3B0E0EBE3F0E080813D
:102EE000482F8A81282F30E081E090E0022E02C036
:102EF000880F991F0A94E2F7842B8C93B4C0A8E33F
:102F0000B0E0E8E3F0E08081482F8A81282F30E0AC
:102F100081E090E0022E02C0880F991F0A94E2F728
:102F2000842B8C93A0C0A5E3B0E0E5E3F0E08081C2
:102F3000482F8A81282F30E081E090E0022E02C0E5
:102F4000880F991F0A94E2F7842B8C938CC0A2E31C
:102F5000B0E0E2E3F0E08081482F8A81282F30E062
:102F600081E090E0022E02C0880F991F0A94E2F7D8
:102F7000842B8C9378C08B81882309F074C089815D
:102F8000282F30E03D832C838C819D8182309105F8
:102F900061F12C813D812330310534F48C819D8198
:102FA0008130910569F05FC02C813D81233031056E
:102FB00089F18C819D818430910509F440C053C012
:102FC000ABE3B0E0EBE3F0E08081482F8A81282F6B
:102FD00030E081E090E0022E02C0880F991F0A9431
:102FE000E2F7809584238C933EC0A8E3B0E0E8E349
:102FF000F0E08081482F8A81282F30E081E090E046
:10300000022E02C0880F991F0A94E2F7809584234C
:103010008C9329C0A5E3B0E0E5E3F0E08081482F80
:103020008A81282F30E081E090E0022E02C0880FD4
:10303000991F0A94E2F7809584238C9314C0A2E32D
:10304000B0E0E2E3F0E08081482F8A81282F30E071
:1030500081E090E0022E02C0880F991F0A94E2F7E7
:10306000809584238C9327960FB6F894DEBF0FBE0D
:10307000CDBFCF91DF910895DF93CF9300D000D0E3
:1030800000D0CDB7DEB789836A838981282F30E0ED
:103090003D832C834C815D814230510549F18C8107
:1030A0009D818330910534F42C813D81213031059F
:1030B00061F057C04C815D814330510561F18C81D5
:1030C0009D8184309105D1F14CC0E9E3F0E080812D
:1030D000282F30E08A81882F90E0A90102C0559501
:1030E00047958A95E2F7CA01582F51705B833AC021
:1030F000E6E3F0E08081282F30E08A81882F90E09D
:10310000A90102C0559547958A95E2F7CA01582F43
:1031100051705B8327C0E3E3F0E08081282F30E02B
:103120008A81882F90E0A90102C0559547958A951C
:10313000E2F7CA01582F51705B8314C0E0E3F0E05E
:103140008081282F30E08A81882F90E0A90102C079
:10315000559547958A95E2F7CA01582F51705B83C0
:1031600001C002C08B818E838E8126960FB6F894A3
:10317000DEBF0FBECDBFCF91DF910895DF93CF9318
:1031800000D000D000D0CDB7DEB789836A838A81B2
:10319000813009F03FC08981282F30E03E832D83A4
:1031A0008D819E8182309105F1F02D813E81233009
:1031B000310534F48D819E818130910561F02AC002
:1031C0002D813E8123303105B1F08D819E81843087
:1031D0009105C9F01FC0AAE3B0E0EAE3F0E0808106
:1031E0008F608C9317C0A7E3B0E0E7E3F0E0808145
:1031F0008F608C930FC0A4E3B0E0E4E3F0E0808143
:103200008F608C9307C0A1E3B0E0E1E3F0E0808140
:103210008F608C938A81882309F03FC08981282F91
:1032200030E03C832B838B819C8182309105F1F0CF
:103230002B813C812330310534F48B819C8181309A
:10324000910561F02AC02B813C8123303105B1F01A
:103250008B819C8184309105C9F01FC0AAE3B0E046
:10326000EAE3F0E08081807F8C9317C0A7E3B0E0B1
:10327000E7E3F0E08081807F8C930FC0A4E3B0E0AF
:10328000E4E3F0E08081807F8C9307C0A1E3B0E0AD
:10329000E1E3F0E08081807F8C9326960FB6F8946E
:1032A000DEBF0FBECDBFCF91DF910895DF93CF93E7
:1032B00000D000D000D0CDB7DEB789836A838A8181
:1032C000813009F03FC08981282F30E03E832D8373
:1032D0008D819E8182309105F1F02D813E812330D8
:1032E000310534F48D819E818130910561F02AC0D1
:1032F0002D813E8123303105B1F08D819E81843056
:103300009105C9F01FC0AAE3B0E0EAE3F0E08081D4
:10331000806F8C9317C0A7E3B0E0E7E3F0E0808113
:10332000806F8C930FC0A4E3B0E0E4E3F0E0808111
:10333000806F8C9307C0A1E3B0E0E1E3F0E080810F
:10334000806F8C938A81882309F03FC08981282F60
:1033500030E03C832B838B819C8182309105F1F09E
:103360002B813C812330310534F48B819C81813069
:10337000910561F02AC02B813C8123303105B1F0E9
:103380008B819C8184309105C9F01FC0AAE3B0E015
:10339000EAE3F0E080818F708C9317C0A7E3B0E080
:1033A000E7E3F0E080818F708C930FC0A4E3B0E07E
:1033B000E4E3F0E080818F708C9307C0A1E3B0E07C
:1033C000E1E3F0E080818F708C9326960FB6F8943D
:1033D000DEBF0FBECDBFCF91DF910895DF93CF93B6
:1033E00000D000D000D0CDB7DEB789836A838A8150
:1033F000813009F040C08981282F30E03E832D8341
:103400008D819E8182309105F1F02D813E812330A6
:10341000310534F48D819E818130910561F06EC05B
:103420002D813E8123303105B1F08D819E81843024
:103430009105C9F063C0ABE3B0E0EBE3F0E080815D
:103440008F608C935BC0A8E3B0E0E8E3F0E080819C
:103450008F608C9353C0A5E3B0E0E5E3F0E080819A
:103460008F608C934BC0A2E3B0E0E2E3F0E0808198
:103470008F608C9343C08A81882309F03FC0898183
:10348000282F30E03C832B838B819C8182309105F7
:10349000F1F02B813C812330310534F48B819C8108
:1034A0008130910561F02AC02B813C8123303105A8
:1034B000B1F08B819C8184309105C9F01FC0ABE3D2
:1034C000B0E0EBE3F0E08081807F8C9317C0A8E34D
:1034D000B0E0E8E3F0E08081807F8C930FC0A5E34B
:1034E000B0E0E5E3F0E08081807F8C9307C0A2E349
:1034F000B0E0E2E3F0E08081807F8C9326960FB607
:10350000F894DEBF0FBECDBFCF91DF910895DF935A
:10351000CF9300D000D000D0CDB7DEB789836A83C7
:103520008A81813009F040C08981282F30E03E83B4
:103530002D838D819E8182309105F1F02D813E8118
:103540002330310534F48D819E818130910561F005
:103550006EC02D813E8123303105B1F08D819E8179
:1035600084309105C9F063C0ABE3B0E0EBE3F0E079
:103570008081806F8C935BC0A8E3B0E0E8E3F0E06B
:103580008081806F8C9353C0A5E3B0E0E5E3F0E069
:103590008081806F8C934BC0A2E3B0E0E2E3F0E067
:1035A0008081806F8C9343C08A81882309F03FC05B
:1035B0008981282F30E03C832B838B819C81823052
:1035C0009105F1F02B813C812330310534F48B815E
:1035D0009C818130910561F02AC02B813C81233090
:1035E0003105B1F08B819C8184309105C9F01FC0F9
:1035F000ABE3B0E0EBE3F0E080818F708C9317C019
:10360000A8E3B0E0E8E3F0E080818F708C930FC016
:10361000A5E3B0E0E5E3F0E080818F708C9307C014
:10362000A2E3B0E0E2E3F0E080818F708C93269615
:103630000FB6F894DEBF0FBECDBFCF91DF910895D6
:10364000AA1BBB1B51E107C0AA1FBB1FA617B707C8
:1036500010F0A61BB70B881F991F5A95A9F78095E4
:103660009095BC01CD0108952F923F924F925F92A9
:103670006F927F928F929F92AF92BF92CF92DF9282
:10368000EF92FF920F931F93CF93DF93CDB7DEB7E7
:10369000CA1BDB0B0FB6F894DEBF0FBECDBF09947B
:1036A0002A88398848885F846E847D848C849B84D2
:1036B000AA84B984C884DF80EE80FD800C811B81E0
:1036C000AA81B981CE0FD11D0FB6F894DEBF0FBE0F
:0A36D000CDBFED010895F894FFCF7F
:1036DA0000000000000000003738392A3435362F40
:1036EA003132332D25303D2B000102030405060734
:00000001FF
