:100000000C942A000C943F000C943F000C943F0089
:100010000C943F000C943F000C943F000C943F0064
:100020000C943F000C943F000C943F000C943F0054
:100030000C943F000C943F000C943F000C943F0044
:100040000C943F000C943F000C943F000C943F0034
:100050000C943F0011241FBECFE5D8E0DEBFCDBF1A
:1000600010E0A0E6B0E0E2E6FFE202C005900D92EB
:10007000A237B107D9F70E949B050C94AF170C94D7
:100080000000EF92FF920F931F937B018C0120E001
:1000900030E040E05FE40E94410388238CF0C80117
:1000A000B70120E030E040E05FE40E94B9010E9427
:1000B000A1039B01AC01205030404040504806C095
:1000C000C801B7010E94A1039B01AC01B901CA019B
:1000D0001F910F91FF90EF900895A0E0B0E0E3E74B
:1000E000F0E00C947817DC012B01FA019C9192301E
:1000F00008F439C1EB018881823008F433C19430AF
:1001000069F4843009F02FC111969C91119789816F
:10011000981709F428C1A0E6B0E025C1843009F49D
:1001200021C18230A9F4923009F01DC19A01AD01BC
:1001300088E0EA010990AE01E90109929E0181502F
:10014000C1F7E201898111969C918923818308C1BD
:10015000923009F407C112962D903C901397EB0151
:100160008A819B811496AD90BD90CD90DC901797BD
:10017000EC80FD800E811F819101281B390BB90194
:1001800037FF04C066277727621B730B6032710547
:100190000CF061C0121613066CF537014801062EEB
:1001A00004C096948794779467940A94D2F721E0D8
:1001B00030E040E050E004C0220F331F441F551FC1
:1001C0006A95D2F721503040404050402E213F21C7
:1001D00040235123211531054105510521F021E02E
:1001E00030E040E050E079018A01E628F72808294C
:1001F00019293CC0232BD1F1260E371E35014601AB
:10020000062E04C096948794779467940A94D2F744
:1002100021E030E040E050E004C0220F331F441FD3
:10022000551F6A95D2F721503040404050402A2156
:100230003B214C215D21211531054105510521F05E
:1002400021E030E040E050E059016A01A628B728DB
:10025000C828D9280BC0821593052CF01C01AA24AC
:10026000BB24650103C0EE24FF24870111969C91F5
:10027000D20111968C91981709F445C0992339F051
:10028000A80197012A193B094C095D0906C0A6017E
:1002900095012E193F09400B510B57FD08C01182E3
:1002A0003382228224833583468357831DC081E0B5
:1002B00081833382228288279927DC01821B930B5A
:1002C000A40BB50B84839583A683B7830DC0220F3F
:1002D000331F441F551F24833583468357838281F0
:1002E000938101979383828324813581468157814D
:1002F000DA01C9010197A109B1098F5F9F4FAF4F83
:10030000BF4328F30BC0918333822282EA0CFB1C8B
:100310000C1D1D1DE482F5820683178383E0808314
:10032000248135814681578157FF1AC0C901AA2708
:1003300097FDA095BA2F81709070A070B0705695FF
:10034000479537952795822B932BA42BB52B848328
:100350009583A683B7838281938101969383828359
:10036000DF0101C0D201CD01CDB7DEB7E2E10C94CF
:100370009417A0E2B0E0EFEBF1E00C9484176983EE
:100380007A838B839C832D833E834F835887E9E058
:10039000EE2EF12CEC0EFD1ECE010196B7010E944F
:1003A000CA048E010F5E1F4FCE010596B8010E9450
:1003B000CA048A8991E089278A8BC701B801AE01F6
:1003C000475E5F4F0E946D000E94F503A096E6E035
:1003D0000C94A017A0E2B0E0E0EFF1E00C948417D9
:1003E00069837A838B839C832D833E834F835887D5
:1003F000F9E0EF2EF12CEC0EFD1ECE010196B701B7
:100400000E94CA048E010F5E1F4FCE010596B801EF
:100410000E94CA04C701B801AE01475E5F4F0E9447
:100420006D000E94F503A096E6E00C94A017A0E2F0
:10043000B0E0EDE1F2E00C94781769837A838B8366
:100440009C832D833E834F835887CE010196BE0146
:10045000675F7F4F0E94CA04CE010596BE016F5EA2
:100460007F4F0E94CA049985923088F08989823032
:10047000C8F0943019F4823051F404C0843029F467
:10048000923081F480E690E0C6C0923049F420E0DA
:100490009A858A89981321E02A87CE010996BBC0E4
:1004A000823049F420E09A858A89981321E02A8BCA
:1004B000CE014196B0C02D843E844F8458886D880B
:1004C0007E888F88988CEE24FF248701AA24BB2481
:1004D000650140E050E060E070E0E0E0F0E0C10184
:1004E00081709070892BE9F0E60CF71C081D191D2E
:1004F0009A01AB012A0D3B1D4C1D5D1D80E090E073
:10050000A0E0B0E0E614F7040805190520F481E046
:1005100090E0A0E0B0E0BA01A901480F591F6A1F9E
:100520007B1FAA0CBB1CCC1CDD1C97FE08C081E005
:1005300090E0A0E0B0E0A82AB92ACA2ADB2A3196C6
:10054000E032F10549F0660C771C881C991C569422
:10055000479437942794C3CFFA85EA892B893C893D
:100560008B859C85280F391F2E5F3F4F17C0CA010E
:1005700081709070892B61F016950795F794E79438
:1005800080E090E0A0E0B0E8E82AF92A0A2B1B2BD3
:1005900076956795579547952F5F3F4F77FDE7CF46
:1005A0000CC0440F551F661F771F17FD4160EE0CEE
:1005B000FF1C001F111F21503040403090E05907B0
:1005C00090E0690790E4790760F32B8F3C8FDB01A3
:1005D000CA018F779070A070B07080349105A1052A
:1005E000B10561F447FD0AC0E114F10401051105EC
:1005F00029F0405C5F4F6F4F7F4F40781A8EFE1797
:1006000011F081E08A8F4D8F5E8F6F8F78A383E02A
:10061000898FCE0149960E94F503A096E2E10C94E1
:100620009417A8E1B0E0E7E1F3E00C948417698344
:100630007A838B839C832D833E834F83588789E005
:10064000E82EF12CEC0EFD1ECE010196B7010E94A2
:10065000CA048E010F5E1F4FCE010596B8010E949D
:10066000CA048985823040F08989823028F0C70128
:10067000B8010E94420501C08FEF6896E6E00C9435
:10068000A017A8E1B0E0E7E4F3E00C9484176983D5
:100690007A838B839C832D833E834F83588789E0A5
:1006A000E82EF12CEC0EFD1ECE010196B7010E9442
:1006B000CA048E010F5E1F4FCE010596B8010E943D
:1006C000CA048985823040F08989823028F0C701C8
:1006D000B8010E94420501C08FEF6896E6E00C94D5
:1006E000A017A8E1B0E0E7E7F3E00C948417698372
:1006F0007A838B839C832D833E834F83588789E045
:10070000E82EF12CEC0EFD1ECE010196B7010E94E1
:10071000CA048E010F5E1F4FCE010596B8010E94DC
:10072000CA048985823040F08989823028F0C70167
:10073000B8010E94420501C081E06896E6E00C9491
:10074000A017ACE0B0E0E7EAF3E00C948817698307
:100750007A838B839C83CE010196BE016B5F7F4FB2
:100760000E94CA048D81823061F1823050F1843060
:1007700021F48E81882351F12EC02F81388537FDD9
:1007800020C06E812F3131051CF06623F9F023C0A3
:100790008EE190E0821B930B29853A854B855C8521
:1007A00004C056954795379527958A95D2F76623C5
:1007B000B1F050954095309521953F4F4F4F5F4F89
:1007C0000EC020E030E040E050E009C02FEF3FEFE6
:1007D0004FEF5FE704C020E030E040E050E8B901AF
:1007E000CA012C96E2E00C94A417DF92EF92FF92DC
:1007F0000F931F93FC01E480F58006811781D1805F
:100800008081823048F480E090E0A0E1B0E0E82A06
:10081000F92A0A2B1B2BA5C0843009F49FC0823013
:1008200021F4EE24FF24870105C0E114F104010541
:10083000110519F4E0E0F0E096C0628173819FEF4A
:10084000623879070CF05BC022E83FEF261B370BBC
:100850002A3131052CF020E030E040E050E02AC0A1
:10086000B801A701022E04C0769567955795479564
:100870000A94D2F781E090E0A0E0B0E004C0880FD5
:10088000991FAA1FBB1F2A95D2F70197A109B10989
:100890008E219F21A023B1230097A105B10521F04E
:1008A00081E090E0A0E0B0E09A01AB01282B392B69
:1008B0004A2B5B2BDA01C9018F779070A070B07062
:1008C00080349105A105B10539F427FF09C0205CEA
:1008D0003F4F4F4F5F4F04C0215C3F4F4F4F5F4F23
:1008E000E0E0F0E02030A0E03A07A0E04A07A0E412
:1008F0005A0710F0E1E0F0E079018A0127C0603882
:10090000710564F5FB01E158FF4FD801C7018F77EE
:100910009070A070B07080349105A105B10539F4D4
:10092000E7FE0DC080E490E0A0E0B0E004C08FE3FB
:1009300090E0A0E0B0E0E80EF91E0A1F1B1F17FFB1
:1009400005C016950795F794E794319687E01695BC
:100950000795F794E7948A95D1F705C0EE24FF2414
:100960008701EFEFF0E06E2F679566276795902F70
:100970009F77D794DD24D7948E2F8695492F462BC9
:10098000582F5D29B701CA011F910F91FF90EF9079
:10099000DF900895FC01DB01408151812281622FAB
:1009A0006F7770E0221F2227221F9381892F880FE3
:1009B000822B282F30E0991F9927991F11969C931D
:1009C000119721153105A9F54115510561057105ED
:1009D00011F482E037C082E89FEF13969C938E93C8
:1009E00012979A01AB0167E0220F331F441F551F76
:1009F0006A95D1F783E08C930DC0220F331F441FFB
:100A0000551F12968D919C911397019713969C9365
:100A10008E931297203080E0380780E0480780E40A
:100A2000580758F314962D933D934D935C93179765
:100A300008952F3F310579F4411551056105710580
:100A400019F484E08C93089564FF03C081E08C93D3
:100A500012C01C9210C02F57304013963C932E9317
:100A6000129783E08C9387E0440F551F661F771F12
:100A70008A95D1F7706414964D935D936D937C9332
:100A8000179708951F93DC01FB019C91923008F4A5
:100A900047C08081823008F443C0943051F41196ED
:100AA0001C91843099F58181682F70E0611B710978
:100AB0003FC0843021F0923031F48230B9F181812D
:100AC000882389F12DC011961C9111978230F1F085
:100AD00081811817D9F412962D913C911397828138
:100AE00093818217930794F028173907BCF0149666
:100AF0008D919D910D90BC91A02D248135814681D1
:100B00005781281739074A075B0718F4112341F06A
:100B10000AC082179307A407B50740F4112319F000
:100B200061E070E005C06FEF7FEF02C060E070E051
:100B3000CB011F9108950F931F93DF93CF93CDB7F0
:100B4000DEB7CD55D1400FB6F894DEBF0FBECDBF96
:100B5000CE01875B9E4FCD5ADE4F99838883C35564
:100B6000D14088E690E0CB5ADE4F99838883C55503
:100B7000D1409AE0C95ADE4F9883C755D140CB5A2D
:100B8000DE4FE881F981C555D1400080CB5ADE4F58
:100B900088819981C555D1400196CB5ADE4F998302
:100BA0008883C555D140CD5ADE4FE881F981C355C0
:100BB000D1400082CD5ADE4F88819981C355D14002
:100BC0000196CD5ADE4F99838883C355D140C95AC7
:100BD000DE4F9881C755D1409150C95ADE4F988356
:100BE000C755D140C95ADE4FE881C755D140EE23E1
:100BF00031F6E4E3F0E08FEF8083E1E3F0E08FEFA4
:100C00008083EAE3F0E087E08083EBE3F0E084E0D8
:100C10008083FE01E95BFE4F8AE090E09183808350
:100C20000C94130EFE01E95BFE4F80819181C85A3E
:100C3000DE4F99838883C855D140C85ADE4FE8817A
:100C4000F981C855D140E530F10509F46CC3C85AA3
:100C5000DE4F88819981C855D14086309105ACF529
:100C6000C85ADE4FE881F981C855D140E230F1051C
:100C700009F425C1C85ADE4F88819981C855D140F1
:100C80008330910564F4C85ADE4FE881F981C85574
:100C9000D140E130F10509F456C00C94070EC85A52
:100CA000DE4F88819981C855D1408330910509F480
:100CB000C2C1C85ADE4FE881F981C855D140E4303D
:100CC000F10509F474C20C94070EC85ADE4F8881EE
:100CD0009981C855D1408830910509F458C5C85A42
:100CE000DE4FE881F981C855D140E930F105B4F40F
:100CF000C85ADE4F88819981C855D1408630910508
:100D000009F4CDC3C85ADE4FE881F981C855D140F6
:100D1000E730F10509F47FC40C94070EC85ADE4F82
:100D200088819981C855D1408930910509F4EBC576
:100D3000C85ADE4FE881F981C855D140EA30F10543
:100D400009F4A4C664C7A5E3B0E0FE01E75BFE4F6B
:100D500081818C93FE01E15CFE4F80E090E0AAE788
:100D6000B4E480839183A283B3838E01055C1E4F1C
:100D7000FE01E15CFE4F608171818281938120E000
:100D800030E04AEF54E40E941702DC01CB01F80185
:100D900080839183A283B383FE01E55CFE4F608173
:100DA00071818281938120E030E040E85FE30E941E
:100DB0007103882344F4FE01E75CFE4F81E090E07C
:100DC0009183808364C0FE01E55CFE4F6081718188
:100DD0008281938120E03FEF4FE757E40E941103A7
:100DE00018160CF043C0FE01E15CFE4F608171817A
:100DF0008281938120E030E040E251E40E941702BA
:100E0000DC01CB018E01075C1E4FBC01CD010E94AD
:100E10004100DC01CB01F801918380831FC0FE01FA
:100E2000E95CFE4F88EC90E091838083FE01E95CF1
:100E3000FE4F808191810197F1F7FE01E95CFE4F41
:100E400091838083DE01A75CBE4FFE01E75CFE4F0D
:100E500080819181019711969C938E93FE01E75CAE
:100E6000FE4F808191810097D1F6D1C68E01075C3B
:100E70001E4FFE01E55CFE4F60817181828193818E
:100E80000E944100DC01CB01F80191838083DE01E7
:100E9000AB5CBE4FFE01E75CFE4F808191811196F5
:100EA0009C938E93FE01EB5CFE4F808191810197B4
:100EB000F1F7FE01EB5CFE4F91838083A8C6A5E3AA
:100EC000B0E0FE01E75BFE4F82818C93FE01EF5C98
:100ED000FE4F80E090E0AAE7B4E480839183A28390
:100EE000B3838E01035D1E4FFE01EF5CFE4F6081F8
:100EF00071818281938120E030E04AEF54E40E94C6
:100F00001702DC01CB01F80180839183A283B383B4
:100F1000FE01E35DFE4F608171818281938120E05B
:100F200030E040E85FE30E947103882344F4FE014F
:100F3000E55DFE4F81E090E09183808364C0FE0117
:100F4000E35DFE4F608171818281938120E03FEFFC
:100F50004FE757E40E94110318160CF043C0FE013E
:100F6000EF5CFE4F608171818281938120E030E0EF
:100F700040E251E40E941702DC01CB018E01055DC5
:100F80001E4FBC01CD010E944100DC01CB01F801E4
:100F9000918380831FC0FE01E75DFE4F88EC90E0E7
:100FA00091838083FE01E75DFE4F808191810197EF
:100FB000F1F7FE01E75DFE4F91838083DE01A55DC1
:100FC000BE4FFE01E55DFE4F808191810197119634
:100FD0009C938E93FE01E55DFE4F80819181009789
:100FE000D1F615C68E01055D1E4FFE01E35DFE4F75
:100FF00060817181828193810E944100DC01CB017B
:10100000F80191838083DE01A95DBE4FFE01E55D9D
:10101000FE4F8081918111969C938E93FE01E95D34
:10102000FE4F808191810197F1F7FE01E95DFE4F4E
:1010300091838083ECC5A5E3B0E0FE01E75BFE4F42
:1010400083818C93FE01ED5DFE4F80E090E0AAE786
:10105000B4E480839183A283B3838E01015E1E4F2B
:10106000FE01ED5DFE4F608171818281938120E000
:1010700030E04AEF54E40E941702DC01CB01F80192
:1010800080839183A283B383FE01E15EFE4F608182
:1010900071818281938120E030E040E85FE30E942B
:1010A0007103882344F4FE01E35EFE4F81E090E08B
:1010B0009183808364C0FE01E15EFE4F6081718197
:1010C0008281938120E03FEF4FE757E40E941103B4
:1010D00018160CF043C0FE01ED5DFE4F608171817A
:1010E0008281938120E030E040E251E40E941702C7
:1010F000DC01CB018E01035E1E4FBC01CD010E94BD
:101100004100DC01CB01F801918380831FC0FE0107
:10111000E55EFE4F88EC90E091838083FE01E55E02
:10112000FE4F808191810197F1F7FE01E55EFE4F50
:1011300091838083DE01A35EBE4FFE01E35EFE4F1E
:1011400080819181019711969C938E93FE01E35EBD
:10115000FE4F808191810097D1F659C58E01035EC3
:101160001E4FFE01E15EFE4F60817181828193819D
:101170000E944100DC01CB01F80191838083DE01F4
:10118000A75EBE4FFE01E35EFE4F80819181119606
:101190009C938E93FE01E75EFE4F808191810197C3
:1011A000F1F7FE01E75EFE4F9183808330C5A5E332
:1011B000B0E0FE01E75BFE4F84818C93FE01EB5EA5
:1011C000FE4F80E090E0AAE7B4E480839183A2839D
:1011D000B3838E010F5E1E4FFE01EB5EFE4F6081FA
:1011E00071818281938120E030E04AEF54E40E94D3
:1011F0001702DC01CB01F80180839183A283B383C2
:10120000FE01EF5EFE4F608171818281938120E05B
:1012100030E040E85FE30E947103882344F4FE015C
:10122000E15FFE4F81E090E09183808364C0FE0126
:10123000EF5EFE4F608171818281938120E03FEFFC
:101240004FE757E40E94110318160CF043C0FE014B
:10125000EB5EFE4F608171818281938120E030E0FE
:1012600040E251E40E941702DC01CB018E01015FD4
:101270001E4FBC01CD010E944100DC01CB01F801F1
:10128000918380831FC0FE01E35FFE4F88EC90E0F6
:1012900091838083FE01E35FFE4F808191810197FE
:1012A000F1F7FE01E35FFE4F91838083DE01A15FD2
:1012B000BE4FFE01E15FFE4F808191810197119643
:1012C0009C938E93FE01E15FFE4F80819181009798
:1012D000D1F69DC48E01015F1E4FFE01EF5EFE4FF1
:1012E00060817181828193810E944100DC01CB0188
:1012F000F80191838083DE01A55FBE4FFE01E15FAF
:10130000FE4F8081918111969C938E93FE01E55F43
:10131000FE4F808191810197F1F7FE01E55FFE4F5D
:101320009183808374C4A5E3B0E0FE01E75BFE4FC8
:1013300085818C93FE01E95FFE4F80E090E0AAE793
:10134000B4E480839183A283B3838E010D5F1E4F2B
:10135000FE01E95FFE4F608171818281938120E00F
:1013600030E04AEF54E40E941702DC01CB01F8019F
:1013700080839183A283B383FE01ED5FFE4F608182
:1013800071818281938120E030E040E85FE30E9438
:101390007103882344F4FE01EF5FFE4F81E090E08B
:1013A0009183808364C0FE01ED5FFE4F6081718197
:1013B0008281938120E03FEF4FE757E40E941103C1
:1013C00018160CF043C0FE01E95FFE4F6081718189
:1013D0008281938120E030E040E251E40E941702D4
:1013E000DC01CB018E010F5F1E4FBC01CD010E94BD
:1013F0004100DC01CB01F801918380831FC0FE0115
:10140000E150FF4F88EC90E091838083FE01E15032
:10141000FF4F808191810197F1F7FE01E150FF4F6D
:1014200091838083DE01AF5FBE4FFE01EF5FFE4F11
:1014300080819181019711969C938E93FE01EF5FBD
:10144000FE4F808191810097D1F6E1C38E010F5F3D
:101450001E4FFE01ED5FFE4F60817181828193819D
:101460000E944100DC01CB01F80191838083DE0101
:10147000A350BF4FFE01EF5FFE4F80819181119617
:101480009C938E93FE01E350FF4F808191810197E1
:10149000F1F7FE01E350FF4F91838083B8C3A5E3CA
:1014A000B0E0FE01E75BFE4F86818C93FE01E750C2
:1014B000FF4F80E090E0AAE7B4E480839183A283A9
:1014C000B3838E010B501F4FFE01E750FF4F608129
:1014D00071818281938120E030E04AEF54E40E94E0
:1014E0001702DC01CB01F80180839183A283B383CF
:1014F000FE01EB50FF4F608171818281938120E07A
:1015000030E040E85FE30E947103882344F4FE0169
:10151000ED50FF4F81E090E09183808364C0FE0135
:10152000EB50FF4F608171818281938120E03FEF1A
:101530004FE757E40E94110318160CF043C0FE0158
:10154000E750FF4F608171818281938120E030E01C
:1015500040E251E40E941702DC01CB018E010D50E4
:101560001F4FBC01CD010E944100DC01CB01F801FD
:10157000918380831FC0FE01EF50FF4F88EC90E005
:1015800091838083FE01EF50FF4F8081918101970D
:10159000F1F7FE01EF50FF4F91838083DE01AD50E4
:1015A000BF4FFE01ED50FF4F808191810197119651
:1015B0009C938E93FE01ED50FF4F808191810097A7
:1015C000D1F625C38E010D501F4FFE01EB50FF4F8A
:1015D00060817181828193810E944100DC01CB0195
:1015E000F80191838083DE01A151BF4FFE01ED50D0
:1015F000FF4F8081918111969C938E93FE01E15162
:10160000FF4F808191810197F1F7FE01E151FF4F7A
:1016100091838083FCC2A5E3B0E0FE01E75BFE4F4F
:1016200087818C93FE01E551FF4F80E090E0AAE7AF
:10163000B4E480839183A283B3838E0109511F4F49
:10164000FE01E551FF4F608171818281938120E02D
:1016500030E04AEF54E40E941702DC01CB01F801AC
:1016600080839183A283B383FE01E951FF4F6081A0
:1016700071818281938120E030E040E85FE30E9445
:101680007103882344F4FE01EB51FF4F81E090E0A9
:101690009183808364C0FE01E951FF4F60817181B5
:1016A0008281938120E03FEF4FE757E40E941103CE
:1016B00018160CF043C0FE01E551FF4F60817181A7
:1016C0008281938120E030E040E251E40E941702E1
:1016D000DC01CB018E010B511F4FBC01CD010E94DB
:1016E0004100DC01CB01F801918380831FC0FE0122
:1016F000ED51FF4F88EC90E091838083FE01ED5126
:10170000FF4F808191810197F1F7FE01ED51FF4F6D
:1017100091838083DE01AB51BF4FFE01EB51FF4F40
:1017200080819181019711969C938E93FE01EB51DC
:10173000FF4F808191810097D1F669C28E010B51D4
:101740001F4FFE01E951FF4F6081718182819381BA
:101750000E944100DC01CB01F80191838083DE010E
:10176000AF51BF4FFE01EB51FF4F80819181119628
:101770009C938E93FE01EF51FF4F808191810197E1
:10178000F1F7FE01EF51FF4F9183808340C2A5E343
:10179000B0E0FE01E75BFE4F80858C93FE01E352D3
:1017A000FF4F80E090E0AAE7B4E480839183A283B6
:1017B000B3838E0107521F4FFE01E352FF4F60813A
:1017C00071818281938120E030E04AEF54E40E94ED
:1017D0001702DC01CB01F80180839183A283B383DC
:1017E000FE01E752FF4F608171818281938120E089
:1017F00030E040E85FE30E947103882344F4FE0177
:10180000E952FF4F81E090E09183808364C0FE0144
:10181000E752FF4F608171818281938120E03FEF29
:101820004FE757E40E94110318160CF043C0FE0165
:10183000E352FF4F608171818281938120E030E02B
:1018400040E251E40E941702DC01CB018E010952F3
:101850001F4FBC01CD010E944100DC01CB01F8010A
:10186000918380831FC0FE01EB52FF4F88EC90E014
:1018700091838083FE01EB52FF4F8081918101971C
:10188000F1F7FE01EB52FF4F91838083DE01A952F5
:10189000BF4FFE01E952FF4F808191810197119660
:1018A0009C938E93FE01E952FF4F808191810097B6
:1018B000D1F6ADC18E0109521F4FFE01E752FF4F15
:1018C00060817181828193810E944100DC01CB01A2
:1018D000F80191838083DE01AD52BF4FFE01E952D2
:1018E000FF4F8081918111969C938E93FE01ED5262
:1018F000FF4F808191810197F1F7FE01ED52FF4F7B
:101900009183808384C1A2E3B0E0FE01E75BFE4FD8
:1019100080818C93A5E3B0E0FE01E75BFE4F8185FB
:101920008C93FE01E153FF4F80E090E0AAE7B4E41E
:1019300080839183A283B3838E0105531F4FFE01E1
:10194000E153FF4F608171818281938120E030E01B
:101950004AEF54E40E941702DC01CB01F8018083B6
:101960009183A283B383FE01E553FF4F60817181B0
:101970008281938120E030E040E85FE30E947103C0
:10198000882344F4FE01E753FF4F81E090E0918308
:10199000808364C0FE01E553FF4F608171818281C5
:1019A000938120E03FEF4FE757E40E9411031816A0
:1019B0000CF043C0FE01E153FF4F608171818281D1
:1019C000938120E030E040E251E40E941702DC0104
:1019D000CB018E0107531F4FBC01CD010E94410076
:1019E000DC01CB01F801918380831FC0FE01E95324
:1019F000FF4F88EC90E091838083FE01E953FF4F15
:101A0000808191810197F1F7FE01E953FF4F9183A6
:101A10008083DE01A753BF4FFE01E753FF4F808154
:101A20009181019711969C938E93FE01E753FF4F8E
:101A3000808191810097D1F6EAC08E0107531F4F34
:101A4000FE01E553FF4F60817181828193810E9485
:101A50004100DC01CB01F80191838083DE01AB53AF
:101A6000BF4FFE01E753FF4F8081918111969C93F8
:101A70008E93FE01EB53FF4F808191810197F1F727
:101A8000FE01EB53FF4F91838083C1C0A2E3B0E01E
:101A9000FE01E75BFE4F81818C93A5E3B0E0FE0180
:101AA000E75BFE4F80818C93FE01EF53FF4F80E098
:101AB00090E0AAE7B4E480839183A283B3838E018C
:101AC00003541F4FFE01EF53FF4F608171818281EC
:101AD000938120E030E04AEF54E40E941702DC01D9
:101AE000CB01F80180839183A283B383FE01E35489
:101AF000FF4F608171818281938120E030E040E876
:101B00005FE30E947103882344F4FE01E554FF4F14
:101B100081E090E09183808364C0FE01E354FF4F35
:101B2000608171818281938120E03FEF4FE757E42C
:101B30000E94110318160CF043C0FE01EF53FF4F33
:101B4000608171818281938120E030E040E251E444
:101B50000E941702DC01CB018E0105541F4FBC010E
:101B6000CD010E944100DC01CB01F801918380830B
:101B70001FC0FE01E754FF4F88EC90E09183808303
:101B8000FE01E754FF4F808191810197F1F7FE013B
:101B9000E754FF4F91838083DE01A554BF4FFE01C0
:101BA000E554FF4F80819181019711969C938E930C
:101BB000FE01E554FF4F808191810097D1F627C047
:101BC0008E0105541F4FFE01E354FF4F6081718168
:101BD000828193810E944100DC01CB01F801918355
:101BE0008083DE01A954BF4FFE01E554FF4F808181
:101BF00091818D939C93FE01E954FF4F80819181E7
:101C00000197F1F7FE01E954FF4F91838083DE01D4
:101C1000A95BBE4FFE01E95BFE4F80819181019778
:101C200011969C938E93FE01E95BFE4F808191811A
:101C30001816190614F40C941206EBE3F0E082E097
:101C40008083FE01EB5BFE4F83E090E09183808315
:101C500067C2FE01EB5BFE4F80819181C65ADE4F69
:101C600099838883CA55D140C65ADE4FE881F981ED
:101C7000CA55D140E230F10509F4D0C0C65ADE4F52
:101C800088819981CA55D1408330910509F482C178
:101C9000C65ADE4FE881F981CA55D140E130F105DD
:101CA00009F032C2A5E3B0E0FE01E75BFE4F81819F
:101CB0008C93FE01ED54FF4F80E090E0AAE7B4E47E
:101CC00080839183A283B3838E0101551F4FFE0150
:101CD000ED54FF4F608171818281938120E030E07B
:101CE0004AEF54E40E941702DC01CB01F801808323
:101CF0009183A283B383FE01E155FF4F608171811F
:101D00008281938120E030E040E85FE30E9471032C
:101D1000882344F4FE01E355FF4F81E090E0918376
:101D2000808364C0FE01E155FF4F60817181828133
:101D3000938120E03FEF4FE757E40E94110318160C
:101D40000CF043C0FE01ED54FF4F60817181828130
:101D5000938120E030E040E251E40E941702DC0170
:101D6000CB018E0103551F4FBC01CD010E944100E4
:101D7000DC01CB01F801918380831FC0FE01E55592
:101D8000FF4F88EC90E091838083FE01E555FF4F83
:101D9000808191810197F1F7FE01E555FF4F918315
:101DA0008083DE01A355BF4FFE01E355FF4F8081C5
:101DB0009181019711969C938E93FE01E355FF4FFD
:101DC000808191810097D1F69FC18E0103551F4FED
:101DD000FE01E155FF4F60817181828193810E94F4
:101DE0004100DC01CB01F80191838083DE01A7551E
:101DF000BF4FFE01E355FF4F8081918111969C9367
:101E00008E93FE01E755FF4F808191810197F1F795
:101E1000FE01E755FF4F9183808376C1A5E3B0E0D3
:101E2000FE01E75BFE4F82818C93FE01EB55FF4F75
:101E300080E090E0AAE7B4E480839183A283B38337
:101E40008E010F551F4FFE01EB55FF4F60817181D1
:101E50008281938120E030E04AEF54E40E9417022F
:101E6000DC01CB01F80180839183A283B383FE015F
:101E7000EF55FF4F608171818281938120E030E0D6
:101E800040E85FE30E947103882344F4FE01E156B9
:101E9000FF4F81E090E09183808364C0FE01EF55A5
:101EA000FF4F608171818281938120E03FEF4FE796
:101EB00057E40E94110318160CF043C0FE01EB55C5
:101EC000FF4F608171818281938120E030E040E2A8
:101ED00051E40E941702DC01CB018E0101561F4F15
:101EE000BC01CD010E944100DC01CB01F8019183CE
:101EF00080831FC0FE01E356FF4F88EC90E0918382
:101F00008083FE01E356FF4F808191810197F1F7B5
:101F1000FE01E356FF4F91838083DE01A156BF4F40
:101F2000FE01E156FF4F80819181019711969C93AC
:101F30008E93FE01E156FF4F808191810097D1F68B
:101F4000E3C08E0101561F4FFE01EF55FF4F608128
:101F50007181828193810E944100DC01CB01F801F3
:101F600091838083DE01A556BF4FFE01E156FF4FEE
:101F70008081918111969C938E93FE01E556FF4FCF
:101F8000808191810197F1F7FE01E556FF4F918322
:101F90008083BAC0A5E3B0E0FE01E75BFE4F83811A
:101FA0008C93FE01E956FF4F80E090E0AAE7B4E48D
:101FB00080839183A283B3838E010D561F4FFE0150
:101FC000E956FF4F608171818281938120E030E08A
:101FD0004AEF54E40E941702DC01CB01F801808330
:101FE0009183A283B383FE01ED56FF4F608171811F
:101FF0008281938120E030E040E85FE30E9471033A
:10200000882344F4FE01EF56FF4F81E090E0918376
:10201000808364C0FE01ED56FF4F60817181828133
:10202000938120E03FEF4FE757E40E941103181619
:102030000CF043C0FE01E956FF4F6081718182813F
:10204000938120E030E040E251E40E941702DC017D
:10205000CB018E010F561F4FBC01CD010E944100E4
:10206000DC01CB01F801918380831FC0FE01E157A1
:10207000FF4F88EC90E091838083FE01E157FF4F92
:10208000808191810197F1F7FE01E157FF4F918324
:102090008083DE01AF56BF4FFE01EF56FF4F8081B8
:1020A0009181019711969C938E93FE01EF56FF4FFD
:1020B000808191810097D1F627C08E010F561F4F66
:1020C000FE01ED56FF4F60817181828193810E94F4
:1020D0004100DC01CB01F80191838083DE01A3572D
:1020E000BF4FFE01EF56FF4F808191818D939C93EE
:1020F000FE01E357FF4F808191810197F1F7FE01C7
:10210000E357FF4F91838083DE01AB5BBE4FFE013F
:10211000EB5BFE4F80819181019711969C938E938A
:10212000FE01EB5BFE4F80819181181619060CF4BD
:1021300090CDEBE3F0E081E08083FE01ED5BFE4FAC
:102140008AE090E091838083C8C6FE01ED5BFE4F7C
:1021500080819181C45ADE4F99838883CC55D140C8
:10216000C45ADE4FE881F981CC55D140E530F10504
:1021700009F469C3C45ADE4F88819981CC55D14096
:10218000863091059CF5C45ADE4FE881F981CC5523
:10219000D140E230F10509F422C1C45ADE4F8881F2
:1021A0009981CC55D140833091055CF4C45ADE4FFF
:1021B000E881F981CC55D140E130F10509F453C0F3
:1021C00080C6C45ADE4F88819981CC55D140833076
:1021D000910509F4C0C1C45ADE4FE881F981CC559C
:1021E000D140E430F10509F472C26BC6C45ADE4F27
:1021F00088819981CC55D1408830910509F4E6C495
:10220000C45ADE4FE881F981CC55D140E930F1055F
:10221000ACF4C45ADE4F88819981CC55D1408630C8
:10222000910509F4CCC3C45ADE4FE881F981CC553D
:10223000D140E730F10509F44FC443C6C45ADE4F1C
:1022400088819981CC55D1408930910509F438C5F0
:10225000C45ADE4FE881F981CC55D140EA30F1050E
:1022600009F4AFC52EC6A5E3B0E0FE01E75BFE4F63
:1022700081818C93FE01E757FF4F80E090E0AAE751
:10228000B4E480839183A283B3838E010B571F4FE5
:10229000FE01E757FF4F608171818281938120E0C9
:1022A00030E04AEF54E40E941702DC01CB01F80150
:1022B00080839183A283B383FE01EB57FF4F60813C
:1022C00071818281938120E030E040E85FE30E94E9
:1022D0007103882344F4FE01ED57FF4F81E090E045
:1022E0009183808364C0FE01EB57FF4F6081718151
:1022F0008281938120E03FEF4FE757E40E94110372
:1023000018160CF043C0FE01E757FF4F6081718142
:102310008281938120E030E040E251E40E94170284
:10232000DC01CB018E010D571F4FBC01CD010E9476
:102330004100DC01CB01F801918380831FC0FE01C5
:10234000EF57FF4F88EC90E091838083FE01EF57B9
:10235000FF4F808191810197F1F7FE01EF57FF4F09
:1023600091838083DE01AD57BF4FFE01ED57FF4FD4
:1023700080819181019711969C938E93FE01ED5778
:10238000FF4F808191810097D1F69BC58E010D573B
:102390001F4FFE01EB57FF4F608171818281938156
:1023A0000E944100DC01CB01F80191838083DE01B2
:1023B000A158BF4FFE01ED57FF4F808191811196CB
:1023C0009C938E93FE01E158FF4F8081918101978C
:1023D000F1F7FE01E158FF4F9183808372C5A5E3B9
:1023E000B0E0FE01E75BFE4F82818C93FE01E55871
:1023F000FF4F80E090E0AAE7B4E480839183A2835A
:10240000B3838E0109581F4FFE01E558FF4F6081CD
:1024100071818281938120E030E04AEF54E40E9490
:102420001702DC01CB01F80180839183A283B3837F
:10243000FE01E958FF4F608171818281938120E024
:1024400030E040E85FE30E947103882344F4FE011A
:10245000EB58FF4F81E090E09183808364C0FE01E0
:10246000E958FF4F608171818281938120E03FEFC5
:102470004FE757E40E94110318160CF043C0FE0109
:10248000E558FF4F608171818281938120E030E0C7
:1024900040E251E40E941702DC01CB018E010B588F
:1024A0001F4FBC01CD010E944100DC01CB01F801AE
:1024B000918380831FC0FE01ED58FF4F88EC90E0B0
:1024C00091838083FE01ED58FF4F808191810197B8
:1024D000F1F7FE01ED58FF4F91838083DE01AB5889
:1024E000BF4FFE01EB58FF4F8081918101971196FC
:1024F0009C938E93FE01EB58FF4F80819181009752
:10250000D1F6DFC48E010B581F4FFE01E958FF4F73
:1025100060817181828193810E944100DC01CB0145
:10252000F80191838083DE01AF58BF4FFE01EB5865
:10253000FF4F8081918111969C938E93FE01EF58FD
:10254000FF4F808191810197F1F7FE01EF58FF4F16
:1025500091838083B6C4A5E3B0E0FE01E75BFE4F44
:1025600083818C93FE01E359FF4F80E090E0AAE75E
:10257000B4E480839183A283B3838E0107591F4FF4
:10258000FE01E359FF4F608171818281938120E0D8
:1025900030E04AEF54E40E941702DC01CB01F8015D
:1025A00080839183A283B383FE01E759FF4F60814B
:1025B00071818281938120E030E040E85FE30E94F6
:1025C0007103882344F4FE01E959FF4F81E090E054
:1025D0009183808364C0FE01E759FF4F6081718160
:1025E0008281938120E03FEF4FE757E40E9411037F
:1025F00018160CF043C0FE01E359FF4F6081718152
:102600008281938120E030E040E251E40E94170291
:10261000DC01CB018E0109591F4FBC01CD010E9485
:102620004100DC01CB01F801918380831FC0FE01D2
:10263000EB59FF4F88EC90E091838083FE01EB59CA
:10264000FF4F808191810197F1F7FE01EB59FF4F18
:1026500091838083DE01A959BF4FFE01E959FF4FE5
:1026600080819181019711969C938E93FE01E95987
:10267000FF4F808191810097D1F623C48E010959C3
:102680001F4FFE01E759FF4F608171818281938165
:102690000E944100DC01CB01F80191838083DE01BF
:1026A000AD59BF4FFE01E959FF4F808191811196CD
:1026B0009C938E93FE01ED59FF4F8081918101978C
:1026C000F1F7FE01ED59FF4F91838083FAC3A5E333
:1026D000B0E0FE01E75BFE4F84818C93FE01E15A7E
:1026E000FF4F80E090E0AAE7B4E480839183A28367
:1026F000B3838E01055A1F4FFE01E15AFF4F6081DF
:1027000071818281938120E030E04AEF54E40E949D
:102710001702DC01CB01F80180839183A283B3838C
:10272000FE01E55AFF4F608171818281938120E033
:1027300030E040E85FE30E947103882344F4FE0127
:10274000E75AFF4F81E090E09183808364C0FE01EF
:10275000E55AFF4F608171818281938120E03FEFD4
:102760004FE757E40E94110318160CF043C0FE0116
:10277000E15AFF4F608171818281938120E030E0D6
:1027800040E251E40E941702DC01CB018E01075A9E
:102790001F4FBC01CD010E944100DC01CB01F801BB
:1027A000918380831FC0FE01E95AFF4F88EC90E0BF
:1027B00091838083FE01E95AFF4F808191810197C7
:1027C000F1F7FE01E95AFF4F91838083DE01A75A9A
:1027D000BF4FFE01E75AFF4F80819181019711960B
:1027E0009C938E93FE01E75AFF4F80819181009761
:1027F000D1F667C38E01075A1F4FFE01E55AFF4FFE
:1028000060817181828193810E944100DC01CB0152
:10281000F80191838083DE01AB5ABF4FFE01E75A76
:10282000FF4F8081918111969C938E93FE01EB5A0C
:10283000FF4F808191810197F1F7FE01EB5AFF4F25
:10284000918380833EC3A5E3B0E0FE01E75BFE4FCA
:1028500085818C93FE01EF5AFF4F80E090E0AAE75C
:10286000B4E480839183A283B3838E01035B1F4F03
:10287000FE01EF5AFF4F608171818281938120E0D8
:1028800030E04AEF54E40E941702DC01CB01F8016A
:1028900080839183A283B383FE01E35BFF4F60815A
:1028A00071818281938120E030E040E85FE30E9403
:1028B0007103882344F4FE01E55BFF4F81E090E063
:1028C0009183808364C0FE01E35BFF4F608171816F
:1028D0008281938120E03FEF4FE757E40E9411038C
:1028E00018160CF043C0FE01EF5AFF4F6081718152
:1028F0008281938120E030E040E251E40E9417029F
:10290000DC01CB018E01055B1F4FBC01CD010E9494
:102910004100DC01CB01F801918380831FC0FE01DF
:10292000E75BFF4F88EC90E091838083FE01E75BDB
:10293000FF4F808191810197F1F7FE01E75BFF4F27
:1029400091838083DE01A55BBF4FFE01E55BFF4FF6
:1029500080819181019711969C938E93FE01E55B96
:10296000FF4F808191810097D1F6ABC28E01055B4C
:102970001F4FFE01E35BFF4F608171818281938174
:102980000E944100DC01CB01F80191838083DE01CC
:10299000A95BBF4FFE01E55BFF4F808191811196DE
:1029A0009C938E93FE01E95BFF4F8081918101979B
:1029B000F1F7FE01E95BFF4F9183808382C2A5E3BB
:1029C000B0E0FE01E75BFE4F86818C93FE01ED5B7C
:1029D000FF4F80E090E0AAE7B4E480839183A28374
:1029E000B3838E01015C1F4FFE01ED5BFF4F6081E1
:1029F00071818281938120E030E04AEF54E40E94AB
:102A00001702DC01CB01F80180839183A283B38399
:102A1000FE01FF96608171818281938120E030E028
:102A200040E85FE30E94710388232CF481E090E08A
:102A30009EAF8DAF46C0FE01FF966081718182819D
:102A4000938120E03FEF4FE757E40E9411031816EF
:102A500064F5FE01ED5BFF4F60817181828193819E
:102A600020E030E040E251E40E941702DC01CB019B
:102A7000BC01CD010E944100DC01CB019EAF8DAFB6
:102A80000FC088EC90E09CAF8BAF8BAD9CAD0197F5
:102A9000F1F79CAF8BAF8DAD9EAD01979EAF8DAF23
:102AA0008DAD9EAD009769F70CC2FE01FF96608167
:102AB0007181828193810E944100DC01CB019EAF34
:102AC0008DAF8DAD9EAD9AAF89AF89AD9AAD0197AF
:102AD000F1F79AAF89AFF5C1A5E3B0E0FE01E75B7E
:102AE000FE4F87818C9380E090E0AAE7B4E48DAB41
:102AF0009EABAFABB8AF6DA97EA98FA998AD20E012
:102B000030E04AEF54E40E941702DC01CB0189ABAC
:102B10009AABABABBCAB69A97AA98BA99CA920E005
:102B200030E040E85FE30E94710388232CF481E0E9
:102B300090E098AB8FA73FC069A97AA98BA99CA9FF
:102B400020E03FEF4FE757E40E94110318164CF5C1
:102B50006DA97EA98FA998AD20E030E040E251E454
:102B60000E941702DC01CB01BC01CD010E94410093
:102B7000DC01CB0198AB8FA70FC088EC90E09EA73B
:102B80008DA78DA59EA50197F1F79EA78DA78FA56F
:102B900098A9019798AB8FA78FA598A9009769F777
:102BA00090C169A97AA98BA99CA90E944100DC0166
:102BB000CB0198AB8FA78FA598A99CA78BA78BA5B6
:102BC0009CA50197F1F79CA78BA77BC1A5E3B0E07B
:102BD000FE01E75BFE4F80858C9380E090E0AAE7E2
:102BE000B4E48FA398A7A9A7BAA76FA178A589A5D0
:102BF0009AA520E030E04AEF54E40E941702DC017D
:102C0000CB018BA39CA3ADA3BEA36BA17CA18DA183
:102C10009EA120E030E040E85FE30E94710388233A
:102C20002CF481E090E09AA389A33FC06BA17CA122
:102C30008DA19EA120E03FEF4FE757E40E941103D2
:102C400018164CF56FA178A589A59AA520E030E06B
:102C500040E251E40E941702DC01CB01BC01CD012E
:102C60000E944100DC01CB019AA389A30FC088EC2C
:102C700090E098A38F8F8F8D98A10197F1F798A37B
:102C80008F8F89A19AA101979AA389A389A19AA15B
:102C9000009769F716C16BA17CA18DA19EA10E942E
:102CA0004100DC01CB019AA389A389A19AA19E8F3F
:102CB0008D8F8D8D9E8D0197F1F79E8F8D8F01C128
:102CC000A2E3B0E0FE01E75BFE4F80818C93A5E3B9
:102CD000B0E0FE01E75BFE4F81858C9380E090E0E1
:102CE000AAE7B4E4898F9A8FAB8FBC8F698D7A8DF8
:102CF0008B8D9C8D20E030E04AEF54E40E94170257
:102D0000DC01CB018D8B9E8BAF8BB88F6D897E895B
:102D10008F89988D20E030E040E85FE30E947103E6
:102D200088232CF481E090E09C8B8B8B3FC06D89D5
:102D30007E898F89988D20E03FEF4FE757E40E940E
:102D4000110318164CF5698D7A8D8B8D9C8D20E0C2
:102D500030E040E251E40E941702DC01CB01BC01EB
:102D6000CD010E944100DC01CB019C8B8B8B0FC0FD
:102D700088EC90E09A8B898B89899A890197F1F781
:102D80009A8B898B8B899C8901979C8B8B8B8B89E8
:102D90009C89009769F795C06D897E898F89988D88
:102DA0000E944100DC01CB019C8B8B8B8B899C8921
:102DB000988B8F878F8598890197F1F7988B8F87EC
:102DC00080C0A2E3B0E0FE01E75BFE4F81818C93FF
:102DD000A5E3B0E0FE01E75BFE4F80818C9380E0CD
:102DE00090E0AAE7B4E48B879C87AD87BE876B85AC
:102DF0007C858D859E8520E030E04AEF54E40E947A
:102E00001702DC01CB018F839887A987BA876F816E
:102E1000788589859A8520E030E040E85FE30E946C
:102E2000710388232CF481E090E09E838D833FC062
:102E30006F81788589859A8520E03FEF4FE757E4D9
:102E40000E94110318164CF56B857C858D859E8537
:102E500020E030E040E251E40E941702DC01CB01A7
:102E6000BC01CD010E944100DC01CB019E838D831A
:102E70000FC088EC90E09C838B838B819C810197B1
:102E8000F1F79C838B838D819E8101979E838D8337
:102E90008D819E81009769F714C06F81788589853F
:102EA0009A850E944100DC01CB019E838D838D8138
:102EB0009E819A83898389819A810197F1F79A8308
:102EC0008983DE01AD5BBE4FFE01ED5BFE4F80816D
:102ED0009181019711969C938E93FE01ED5BFE4FBD
:102EE00080819181181619060CF42FC90C940506DF
:102EF0002F923F924F925F926F927F928F929F920A
:102F0000AF92BF92CF92DF92EF92FF920F931F93F7
:102F1000CF93DF93CDB7DEB7CA1BDB0B0FB6F894A8
:102F2000DEBF0FBECDBF09942A88398848885F84E8
:102F30006E847D848C849B84AA84B984C884DF8059
:102F4000EE80FD800C811B81AA81B981CE0FD11D3D
:102F50000FB6F894DEBF0FBECDBFED010895F89413
:022F6000FFCFA1
:102F620000000000000000003F065B4F666D7D0719
:022F72007F6F6F
:00000001FF
