:100000000C942A000C9434000C9434000C943400AA
:100010000C9434000C9434000C9434000C94340090
:100020000C9434000C9434000C9434000C94340080
:100030000C9434000C9434000C9434000C94340070
:100040000C9434000C9434000C9434000C94340060
:100050000C94340011241FBECFE5D8E0DEBFCDBF25
:100060000E9436000C9457000C940000DF93CF934D
:10007000CDB7DEB7EAE3F0E01082E7E3F0E081E03D
:100080008083EBE3F0E081E08083E9E3F0E08081CE
:10009000882F90E081709070009729F4E8E3F0E0F9
:1000A00081E08083F2CFE8E3F0E01082EECFF894B5
:0200B000FFCF80
:00000001FF
