:100000000C942A000C9434000C9434000C943400AA
:100010000C9434000C9434000C9434000C94340090
:100020000C9434000C9434000C9434000C94340080
:100030000C9434000C9434000C9434000C94340070
:100040000C9434000C9434000C9434000C94340060
:100050000C94340011241FBECFE5D8E0DEBFCDBF25
:100060000E9436000C9444000C940000DF93CF9360
:10007000CDB7DEB7EAE3F0E01082EBE3F0E081E039
:0C0080008083CF91DF910895F894FFCFAA
:00000001FF
